{
  "contractName": "ConfirmValidator",
  "abi": [
    {
      "constant": false,
      "inputs": [
        {
          "name": "account",
          "type": "address"
        }
      ],
      "name": "addWhitelisted",
      "outputs": [],
      "payable": false,
      "stateMutability": "nonpayable",
      "type": "function"
    },
    {
      "constant": false,
      "inputs": [
        {
          "name": "account",
          "type": "address"
        }
      ],
      "name": "removeWhitelisted",
      "outputs": [],
      "payable": false,
      "stateMutability": "nonpayable",
      "type": "function"
    },
    {
      "constant": true,
      "inputs": [
        {
          "name": "account",
          "type": "address"
        }
      ],
      "name": "isWhitelisted",
      "outputs": [
        {
          "name": "",
          "type": "bool"
        }
      ],
      "payable": false,
      "stateMutability": "view",
      "type": "function"
    },
    {
      "constant": false,
      "inputs": [],
      "name": "renounceWhitelistAdmin",
      "outputs": [],
      "payable": false,
      "stateMutability": "nonpayable",
      "type": "function"
    },
    {
      "constant": false,
      "inputs": [
        {
          "name": "account",
          "type": "address"
        }
      ],
      "name": "addWhitelistAdmin",
      "outputs": [],
      "payable": false,
      "stateMutability": "nonpayable",
      "type": "function"
    },
    {
      "constant": true,
      "inputs": [
        {
          "name": "account",
          "type": "address"
        }
      ],
      "name": "isWhitelistAdmin",
      "outputs": [
        {
          "name": "",
          "type": "bool"
        }
      ],
      "payable": false,
      "stateMutability": "view",
      "type": "function"
    },
    {
      "constant": false,
      "inputs": [],
      "name": "renounceWhitelisted",
      "outputs": [],
      "payable": false,
      "stateMutability": "nonpayable",
      "type": "function"
    },
    {
      "anonymous": false,
      "inputs": [
        {
          "indexed": true,
          "name": "account",
          "type": "address"
        }
      ],
      "name": "WhitelistedAdded",
      "type": "event"
    },
    {
      "anonymous": false,
      "inputs": [
        {
          "indexed": true,
          "name": "account",
          "type": "address"
        }
      ],
      "name": "WhitelistedRemoved",
      "type": "event"
    },
    {
      "anonymous": false,
      "inputs": [
        {
          "indexed": true,
          "name": "account",
          "type": "address"
        }
      ],
      "name": "WhitelistAdminAdded",
      "type": "event"
    },
    {
      "anonymous": false,
      "inputs": [
        {
          "indexed": true,
          "name": "account",
          "type": "address"
        }
      ],
      "name": "WhitelistAdminRemoved",
      "type": "event"
    },
    {
      "constant": false,
      "inputs": [
        {
          "name": "_validator",
          "type": "address"
        }
      ],
      "name": "isValidator",
      "outputs": [
        {
          "name": "",
          "type": "bool"
        }
      ],
      "payable": false,
      "stateMutability": "nonpayable",
      "type": "function"
    }
  ],
  "bytecode": "0x60806040526100163364010000000061001b810204565b61018f565b61003360008264010000000061047b61006a82021704565b604051600160a060020a038216907f22380c05984257a1cb900161c713dd71d39e74820f1aea43bd3f1bdd2096129990600090a250565b61007d828264010000000061010e810204565b156100e957604080517f08c379a000000000000000000000000000000000000000000000000000000000815260206004820152601f60248201527f526f6c65733a206163636f756e7420616c72656164792068617320726f6c6500604482015290519081900360640190fd5b600160a060020a0316600090815260209190915260409020805460ff19166001179055565b6000600160a060020a03821661016f576040517f08c379a00000000000000000000000000000000000000000000000000000000081526004018080602001828103825260228152602001806107b66022913960400191505060405180910390fd5b50600160a060020a03166000908152602091909152604090205460ff1690565b6106188061019e6000396000f3fe608060405234801561001057600080fd5b50600436106100a5576000357c0100000000000000000000000000000000000000000000000000000000900480637362d9c8116100785780637362d9c81461013a578063bb5f747b14610160578063d6cd947314610186578063facd743b1461018e576100a5565b806310154bad146100aa578063291d9549146100d25780633af32abf146100f85780634c5a628c14610132575b600080fd5b6100d0600480360360208110156100c057600080fd5b5035600160a060020a03166101b4565b005b6100d0600480360360208110156100e857600080fd5b5035600160a060020a0316610207565b61011e6004803603602081101561010e57600080fd5b5035600160a060020a0316610257565b604080519115158252519081900360200190f35b6100d0610270565b6100d06004803603602081101561015057600080fd5b5035600160a060020a031661027b565b61011e6004803603602081101561017657600080fd5b5035600160a060020a03166102cb565b6100d06102dd565b61011e600480360360208110156101a457600080fd5b5035600160a060020a03166102e6565b6101bd336102cb565b6101fb5760405160e560020a62461bcd0281526004018080602001828103825260408152602001806105ad6040913960400191505060405180910390fd5b610204816102f1565b50565b610210336102cb565b61024e5760405160e560020a62461bcd0281526004018080602001828103825260408152602001806105ad6040913960400191505060405180910390fd5b61020481610339565b600061026a60018363ffffffff61038116565b92915050565b610279336103eb565b565b610284336102cb565b6102c25760405160e560020a62461bcd0281526004018080602001828103825260408152602001806105ad6040913960400191505060405180910390fd5b61020481610433565b600061026a818363ffffffff61038116565b61027933610339565b600061026a82610257565b61030260018263ffffffff61047b16565b604051600160a060020a038216907fee1504a83b6d4a361f4c1dc78ab59bfa30d6a3b6612c403e86bb01ef2984295f90600090a250565b61034a60018263ffffffff6104ff16565b604051600160a060020a038216907f270d9b30cf5b0793bbfd54c9d5b94aeb49462b8148399000265144a8722da6b690600090a250565b6000600160a060020a0382166103cb5760405160e560020a62461bcd02815260040180806020018281038252602281526020018061058b6022913960400191505060405180910390fd5b50600160a060020a03166000908152602091909152604090205460ff1690565b6103fc60008263ffffffff6104ff16565b604051600160a060020a038216907f0a8eb35e5ca14b3d6f28e4abf2f128dbab231a58b56e89beb5d636115001e16590600090a250565b61044460008263ffffffff61047b16565b604051600160a060020a038216907f22380c05984257a1cb900161c713dd71d39e74820f1aea43bd3f1bdd2096129990600090a250565b6104858282610381565b156104da576040805160e560020a62461bcd02815260206004820152601f60248201527f526f6c65733a206163636f756e7420616c72656164792068617320726f6c6500604482015290519081900360640190fd5b600160a060020a0316600090815260209190915260409020805460ff19166001179055565b6105098282610381565b6105475760405160e560020a62461bcd02815260040180806020018281038252602181526020018061056a6021913960400191505060405180910390fd5b600160a060020a0316600090815260209190915260409020805460ff1916905556fe526f6c65733a206163636f756e7420646f6573206e6f74206861766520726f6c65526f6c65733a206163636f756e7420697320746865207a65726f206164647265737357686974656c69737441646d696e526f6c653a2063616c6c657220646f6573206e6f742068617665207468652057686974656c69737441646d696e20726f6c65a165627a7a723058202afda188eb25d4bb66771fff31eed4c09e19bef0b1ae1ca3f691c90f5afc8c6f0029526f6c65733a206163636f756e7420697320746865207a65726f2061646472657373",
  "source": "pragma solidity ^0.5.0;\n\nimport './interfaces/IValidator.sol';\nimport './interfaces/ILiability.sol';\nimport '../node_modules/openzeppelin-solidity/contracts/access/roles/WhitelistedRole.sol';\n\ncontract ConfirmValidator is WhitelistedRole, IValidator {\n    function isValidator(address _validator) external returns (bool) {\n        return isWhitelisted(_validator);\n    }\n}\n\n",
  "sourcePath": "/home/vadim/Projects/issuing_agent/contracts/contracts/ConfirmValidator.sol",
  "compiler": {
    "name": "solc",
    "version": "0.5.7+commit.6da8b019.Emscripten.clang"
  },
  "schemaVersion": "3.0.19",
  "updatedAt": "2019-12-14T14:21:12.952Z",
  "devdoc": {
    "methods": {}
  },
  "userdoc": {
    "methods": {}
  }
}