{
  "contractName": "ConfirmValidator",
  "abi": [
    {
      "constant": true,
      "inputs": [],
      "name": "validator",
      "outputs": [
        {
          "name": "",
          "type": "address"
        }
      ],
      "payable": false,
      "stateMutability": "view",
      "type": "function"
    },
    {
      "inputs": [
        {
          "name": "_validator",
          "type": "address"
        }
      ],
      "payable": false,
      "stateMutability": "nonpayable",
      "type": "constructor"
    },
    {
      "constant": false,
      "inputs": [
        {
          "name": "_validator",
          "type": "address"
        }
      ],
      "name": "isValidator",
      "outputs": [
        {
          "name": "",
          "type": "bool"
        }
      ],
      "payable": false,
      "stateMutability": "nonpayable",
      "type": "function"
    }
  ],
  "bytecode": "0x608060405234801561001057600080fd5b5060405160208061019a8339810180604052602081101561003057600080fd5b505160008054600160a060020a03909216600160a060020a0319909216919091179055610138806100626000396000f3fe608060405234801561001057600080fd5b5060043610610052577c010000000000000000000000000000000000000000000000000000000060003504633a5381b58114610057578063facd743b14610088575b600080fd5b61005f6100cf565b6040805173ffffffffffffffffffffffffffffffffffffffff9092168252519081900360200190f35b6100bb6004803603602081101561009e57600080fd5b503573ffffffffffffffffffffffffffffffffffffffff166100eb565b604080519115158252519081900360200190f35b60005473ffffffffffffffffffffffffffffffffffffffff1681565b60005473ffffffffffffffffffffffffffffffffffffffff9081169116149056fea165627a7a723058207e47e028e5b6b17113d05ac3c2af161a4a2d79b6a68e653f5bc0ae234006a1350029",
  "source": "pragma solidity ^0.5.0;\n\nimport './interfaces/IValidator.sol';\nimport './interfaces/ILiability.sol';\n\ncontract ConfirmValidator is IValidator {\n    address public validator;\n\n    constructor(address _validator) public {\n        validator = _validator;\n    }\n\n    function isValidator(address _validator) external returns (bool) {\n        return _validator == validator;\n    }\n}\n\n",
  "sourcePath": "/home/vadim/Projects/issuing-service-package/contracts/contracts/ConfirmValidator.sol",
  "compiler": {
    "name": "solc",
    "version": "0.5.7+commit.6da8b019.Emscripten.clang"
  },
  "schemaVersion": "3.0.11",
  "updatedAt": "2019-08-26T15:17:25.668Z",
  "devdoc": {
    "methods": {}
  },
  "userdoc": {
    "methods": {}
  }
}