{
  "contractName": "ConfirmValidator",
  "abi": [
    {
      "constant": false,
      "inputs": [
        {
          "name": "account",
          "type": "address"
        }
      ],
      "name": "addWhitelisted",
      "outputs": [],
      "payable": false,
      "stateMutability": "nonpayable",
      "type": "function"
    },
    {
      "constant": false,
      "inputs": [
        {
          "name": "account",
          "type": "address"
        }
      ],
      "name": "removeWhitelisted",
      "outputs": [],
      "payable": false,
      "stateMutability": "nonpayable",
      "type": "function"
    },
    {
      "constant": true,
      "inputs": [
        {
          "name": "account",
          "type": "address"
        }
      ],
      "name": "isWhitelisted",
      "outputs": [
        {
          "name": "",
          "type": "bool"
        }
      ],
      "payable": false,
      "stateMutability": "view",
      "type": "function"
    },
    {
      "constant": false,
      "inputs": [],
      "name": "renounceWhitelistAdmin",
      "outputs": [],
      "payable": false,
      "stateMutability": "nonpayable",
      "type": "function"
    },
    {
      "constant": false,
      "inputs": [
        {
          "name": "account",
          "type": "address"
        }
      ],
      "name": "addWhitelistAdmin",
      "outputs": [],
      "payable": false,
      "stateMutability": "nonpayable",
      "type": "function"
    },
    {
      "constant": true,
      "inputs": [
        {
          "name": "account",
          "type": "address"
        }
      ],
      "name": "isWhitelistAdmin",
      "outputs": [
        {
          "name": "",
          "type": "bool"
        }
      ],
      "payable": false,
      "stateMutability": "view",
      "type": "function"
    },
    {
      "constant": false,
      "inputs": [],
      "name": "renounceWhitelisted",
      "outputs": [],
      "payable": false,
      "stateMutability": "nonpayable",
      "type": "function"
    },
    {
      "anonymous": false,
      "inputs": [
        {
          "indexed": true,
          "name": "account",
          "type": "address"
        }
      ],
      "name": "WhitelistedAdded",
      "type": "event"
    },
    {
      "anonymous": false,
      "inputs": [
        {
          "indexed": true,
          "name": "account",
          "type": "address"
        }
      ],
      "name": "WhitelistedRemoved",
      "type": "event"
    },
    {
      "anonymous": false,
      "inputs": [
        {
          "indexed": true,
          "name": "account",
          "type": "address"
        }
      ],
      "name": "WhitelistAdminAdded",
      "type": "event"
    },
    {
      "anonymous": false,
      "inputs": [
        {
          "indexed": true,
          "name": "account",
          "type": "address"
        }
      ],
      "name": "WhitelistAdminRemoved",
      "type": "event"
    },
    {
      "constant": false,
      "inputs": [
        {
          "name": "_validator",
          "type": "address"
        }
      ],
      "name": "isValidator",
      "outputs": [
        {
          "name": "",
          "type": "bool"
        }
      ],
      "payable": false,
      "stateMutability": "nonpayable",
      "type": "function"
    }
  ],
  "bytecode": "0x60806040526100133361001860201b60201c565b610189565b61003081600061006760201b61045e1790919060201c565b6040516001600160a01b038216907f22380c05984257a1cb900161c713dd71d39e74820f1aea43bd3f1bdd2096129990600090a250565b610077828261010860201b60201c565b156100e357604080517f08c379a000000000000000000000000000000000000000000000000000000000815260206004820152601f60248201527f526f6c65733a206163636f756e7420616c72656164792068617320726f6c6500604482015290519081900360640190fd5b6001600160a01b0316600090815260209190915260409020805460ff19166001179055565b60006001600160a01b038216610169576040517f08c379a00000000000000000000000000000000000000000000000000000000081526004018080602001828103825260228152602001806107936022913960400191505060405180910390fd5b506001600160a01b03166000908152602091909152604090205460ff1690565b6105fb806101986000396000f3fe608060405234801561001057600080fd5b50600436106100885760003560e01c80637362d9c81161005b5780637362d9c81461011d578063bb5f747b14610143578063d6cd947314610169578063facd743b1461017157610088565b806310154bad1461008d578063291d9549146100b55780633af32abf146100db5780634c5a628c14610115575b600080fd5b6100b3600480360360208110156100a357600080fd5b50356001600160a01b0316610197565b005b6100b3600480360360208110156100cb57600080fd5b50356001600160a01b03166101ea565b610101600480360360208110156100f157600080fd5b50356001600160a01b031661023a565b604080519115158252519081900360200190f35b6100b3610253565b6100b36004803603602081101561013357600080fd5b50356001600160a01b031661025e565b6101016004803603602081101561015957600080fd5b50356001600160a01b03166102ae565b6100b36102c0565b6101016004803603602081101561018757600080fd5b50356001600160a01b03166102c9565b6101a0336102ae565b6101de57604051600160e51b62461bcd0281526004018080602001828103825260408152602001806105906040913960400191505060405180910390fd5b6101e7816102d4565b50565b6101f3336102ae565b61023157604051600160e51b62461bcd0281526004018080602001828103825260408152602001806105906040913960400191505060405180910390fd5b6101e78161031c565b600061024d60018363ffffffff61036416565b92915050565b61025c336103ce565b565b610267336102ae565b6102a557604051600160e51b62461bcd0281526004018080602001828103825260408152602001806105906040913960400191505060405180910390fd5b6101e781610416565b600061024d818363ffffffff61036416565b61025c3361031c565b600061024d8261023a565b6102e560018263ffffffff61045e16565b6040516001600160a01b038216907fee1504a83b6d4a361f4c1dc78ab59bfa30d6a3b6612c403e86bb01ef2984295f90600090a250565b61032d60018263ffffffff6104e216565b6040516001600160a01b038216907f270d9b30cf5b0793bbfd54c9d5b94aeb49462b8148399000265144a8722da6b690600090a250565b60006001600160a01b0382166103ae57604051600160e51b62461bcd02815260040180806020018281038252602281526020018061056e6022913960400191505060405180910390fd5b506001600160a01b03166000908152602091909152604090205460ff1690565b6103df60008263ffffffff6104e216565b6040516001600160a01b038216907f0a8eb35e5ca14b3d6f28e4abf2f128dbab231a58b56e89beb5d636115001e16590600090a250565b61042760008263ffffffff61045e16565b6040516001600160a01b038216907f22380c05984257a1cb900161c713dd71d39e74820f1aea43bd3f1bdd2096129990600090a250565b6104688282610364565b156104bd5760408051600160e51b62461bcd02815260206004820152601f60248201527f526f6c65733a206163636f756e7420616c72656164792068617320726f6c6500604482015290519081900360640190fd5b6001600160a01b0316600090815260209190915260409020805460ff19166001179055565b6104ec8282610364565b61052a57604051600160e51b62461bcd02815260040180806020018281038252602181526020018061054d6021913960400191505060405180910390fd5b6001600160a01b0316600090815260209190915260409020805460ff1916905556fe526f6c65733a206163636f756e7420646f6573206e6f74206861766520726f6c65526f6c65733a206163636f756e7420697320746865207a65726f206164647265737357686974656c69737441646d696e526f6c653a2063616c6c657220646f6573206e6f742068617665207468652057686974656c69737441646d696e20726f6c65a165627a7a72305820f1368230fe0be7c75d1f61b40e56098976fd97ffc46eda3efa55727eb1c1ea610029526f6c65733a206163636f756e7420697320746865207a65726f2061646472657373",
  "source": "pragma solidity ^0.5.0;\n\nimport './interfaces/IValidator.sol';\nimport './interfaces/ILiability.sol';\nimport '../node_modules/openzeppelin-solidity/contracts/access/roles/WhitelistedRole.sol';\n\ncontract ConfirmValidator is WhitelistedRole, IValidator {\n    function isValidator(address _validator) external returns (bool) {\n        return isWhitelisted(_validator);\n    }\n}\n\n",
  "sourcePath": "/home/vadim/Projects/issuing-service-package/contracts/contracts/ConfirmValidator.sol",
  "compiler": {
    "name": "solc",
    "version": "0.5.7+commit.6da8b019.Emscripten.clang"
  },
  "schemaVersion": "3.0.11",
  "updatedAt": "2019-09-17T14:41:20.825Z",
  "devdoc": {
    "methods": {}
  },
  "userdoc": {
    "methods": {}
  }
}