{
  "contractName": "Emitter",
  "abi": [
    {
      "constant": true,
      "inputs": [
        {
          "name": "",
          "type": "address"
        }
      ],
      "name": "certificates",
      "outputs": [
        {
          "name": "token",
          "type": "address"
        },
        {
          "name": "value",
          "type": "uint256"
        }
      ],
      "payable": false,
      "stateMutability": "view",
      "type": "function"
    },
    {
      "constant": false,
      "inputs": [
        {
          "name": "account",
          "type": "address"
        }
      ],
      "name": "addWhitelisted",
      "outputs": [],
      "payable": false,
      "stateMutability": "nonpayable",
      "type": "function"
    },
    {
      "constant": false,
      "inputs": [
        {
          "name": "account",
          "type": "address"
        }
      ],
      "name": "removeWhitelisted",
      "outputs": [],
      "payable": false,
      "stateMutability": "nonpayable",
      "type": "function"
    },
    {
      "constant": true,
      "inputs": [
        {
          "name": "account",
          "type": "address"
        }
      ],
      "name": "isWhitelisted",
      "outputs": [
        {
          "name": "",
          "type": "bool"
        }
      ],
      "payable": false,
      "stateMutability": "view",
      "type": "function"
    },
    {
      "constant": false,
      "inputs": [],
      "name": "renounceWhitelistAdmin",
      "outputs": [],
      "payable": false,
      "stateMutability": "nonpayable",
      "type": "function"
    },
    {
      "constant": false,
      "inputs": [
        {
          "name": "account",
          "type": "address"
        }
      ],
      "name": "addWhitelistAdmin",
      "outputs": [],
      "payable": false,
      "stateMutability": "nonpayable",
      "type": "function"
    },
    {
      "constant": true,
      "inputs": [
        {
          "name": "account",
          "type": "address"
        }
      ],
      "name": "isWhitelistAdmin",
      "outputs": [
        {
          "name": "",
          "type": "bool"
        }
      ],
      "payable": false,
      "stateMutability": "view",
      "type": "function"
    },
    {
      "constant": false,
      "inputs": [],
      "name": "renounceWhitelisted",
      "outputs": [],
      "payable": false,
      "stateMutability": "nonpayable",
      "type": "function"
    },
    {
      "anonymous": false,
      "inputs": [
        {
          "indexed": true,
          "name": "account",
          "type": "address"
        }
      ],
      "name": "WhitelistedAdded",
      "type": "event"
    },
    {
      "anonymous": false,
      "inputs": [
        {
          "indexed": true,
          "name": "account",
          "type": "address"
        }
      ],
      "name": "WhitelistedRemoved",
      "type": "event"
    },
    {
      "anonymous": false,
      "inputs": [
        {
          "indexed": true,
          "name": "account",
          "type": "address"
        }
      ],
      "name": "WhitelistAdminAdded",
      "type": "event"
    },
    {
      "anonymous": false,
      "inputs": [
        {
          "indexed": true,
          "name": "account",
          "type": "address"
        }
      ],
      "name": "WhitelistAdminRemoved",
      "type": "event"
    },
    {
      "constant": false,
      "inputs": [
        {
          "name": "liability",
          "type": "address"
        },
        {
          "name": "token",
          "type": "address"
        },
        {
          "name": "value",
          "type": "uint256"
        }
      ],
      "name": "issueCertificate",
      "outputs": [],
      "payable": false,
      "stateMutability": "nonpayable",
      "type": "function"
    },
    {
      "constant": false,
      "inputs": [
        {
          "name": "liability",
          "type": "address"
        }
      ],
      "name": "claimCertificate",
      "outputs": [],
      "payable": false,
      "stateMutability": "nonpayable",
      "type": "function"
    }
  ],
  "bytecode": "0x60806040526100163364010000000061001b810204565b61018f565b61003360008264010000000061077261006a82021704565b604051600160a060020a038216907f22380c05984257a1cb900161c713dd71d39e74820f1aea43bd3f1bdd2096129990600090a250565b61007d828264010000000061010e810204565b156100e957604080517f08c379a000000000000000000000000000000000000000000000000000000000815260206004820152601f60248201527f526f6c65733a206163636f756e7420616c72656164792068617320726f6c6500604482015290519081900360640190fd5b600160a060020a0316600090815260209190915260409020805460ff19166001179055565b6000600160a060020a03821661016f576040517f08c379a0000000000000000000000000000000000000000000000000000000008152600401808060200182810382526022815260200180610ae76022913960400191505060405180910390fd5b50600160a060020a03166000908152602091909152604090205460ff1690565b6109498061019e6000396000f3fe608060405234801561001057600080fd5b50600436106100ba576000357c0100000000000000000000000000000000000000000000000000000000900480634c5a628c116100835780634c5a628c146101b65780637362d9c8146101be5780637556aadc146101e4578063bb5f747b1461021a578063d6cd947314610240576100ba565b806216e526146100bf57806310154bad14610108578063144f5e2214610130578063291d9549146101565780633af32abf1461017c575b600080fd5b6100e5600480360360208110156100d557600080fd5b5035600160a060020a0316610248565b60408051600160a060020a03909316835260208301919091528051918290030190f35b61012e6004803603602081101561011e57600080fd5b5035600160a060020a031661026d565b005b61012e6004803603602081101561014657600080fd5b5035600160a060020a03166102c0565b61012e6004803603602081101561016c57600080fd5b5035600160a060020a0316610458565b6101a26004803603602081101561019257600080fd5b5035600160a060020a03166104a8565b604080519115158252519081900360200190f35b61012e6104c1565b61012e600480360360208110156101d457600080fd5b5035600160a060020a03166104cc565b61012e600480360360608110156101fa57600080fd5b50600160a060020a0381358116916020810135909116906040013561051c565b6101a26004803603602081101561023057600080fd5b5035600160a060020a03166105cd565b61012e6105df565b60026020526000908152604090208054600190910154600160a060020a039091169082565b610276336105cd565b6102b45760405160e560020a62461bcd0281526004018080602001828103825260408152602001806108a46040913960400191505060405180910390fd5b6102bd816105e8565b50565b600160a060020a0381166000908152600260205260409020600101546102e557600080fd5b80600160a060020a0316638d4e40836040518163ffffffff167c010000000000000000000000000000000000000000000000000000000002815260040160206040518083038186803b15801561033a57600080fd5b505afa15801561034e573d6000803e3d6000fd5b505050506040513d602081101561036457600080fd5b505161036f57600080fd5b600160a060020a038082166000908152600260209081526040808320805460019091015482517f40c10f190000000000000000000000000000000000000000000000000000000081523360048201526024810191909152915194169384936340c10f1993604480850194919392918390030190829087803b1580156103f357600080fd5b505af1158015610407573d6000803e3d6000fd5b505050506040513d602081101561041d57600080fd5b505050600160a060020a03166000908152600260205260408120805473ffffffffffffffffffffffffffffffffffffffff1916815560010155565b610461336105cd565b61049f5760405160e560020a62461bcd0281526004018080602001828103825260408152602001806108a46040913960400191505060405180910390fd5b6102bd81610630565b60006104bb60018363ffffffff61067816565b92915050565b6104ca336106e2565b565b6104d5336105cd565b6105135760405160e560020a62461bcd0281526004018080602001828103825260408152602001806108a46040913960400191505060405180910390fd5b6102bd8161072a565b610525336104a8565b6105635760405160e560020a62461bcd02815260040180806020018281038252603a8152602001806108e4603a913960400191505060405180910390fd5b600160a060020a0383166000908152600260205260409020600101541561058957600080fd5b600160a060020a03928316600090815260026020526040902080549390921673ffffffffffffffffffffffffffffffffffffffff1990931692909217815560010155565b60006104bb818363ffffffff61067816565b6104ca33610630565b6105f960018263ffffffff61077216565b604051600160a060020a038216907fee1504a83b6d4a361f4c1dc78ab59bfa30d6a3b6612c403e86bb01ef2984295f90600090a250565b61064160018263ffffffff6107f616565b604051600160a060020a038216907f270d9b30cf5b0793bbfd54c9d5b94aeb49462b8148399000265144a8722da6b690600090a250565b6000600160a060020a0382166106c25760405160e560020a62461bcd0281526004018080602001828103825260228152602001806108826022913960400191505060405180910390fd5b50600160a060020a03166000908152602091909152604090205460ff1690565b6106f360008263ffffffff6107f616565b604051600160a060020a038216907f0a8eb35e5ca14b3d6f28e4abf2f128dbab231a58b56e89beb5d636115001e16590600090a250565b61073b60008263ffffffff61077216565b604051600160a060020a038216907f22380c05984257a1cb900161c713dd71d39e74820f1aea43bd3f1bdd2096129990600090a250565b61077c8282610678565b156107d1576040805160e560020a62461bcd02815260206004820152601f60248201527f526f6c65733a206163636f756e7420616c72656164792068617320726f6c6500604482015290519081900360640190fd5b600160a060020a0316600090815260209190915260409020805460ff19166001179055565b6108008282610678565b61083e5760405160e560020a62461bcd0281526004018080602001828103825260218152602001806108616021913960400191505060405180910390fd5b600160a060020a0316600090815260209190915260409020805460ff1916905556fe526f6c65733a206163636f756e7420646f6573206e6f74206861766520726f6c65526f6c65733a206163636f756e7420697320746865207a65726f206164647265737357686974656c69737441646d696e526f6c653a2063616c6c657220646f6573206e6f742068617665207468652057686974656c69737441646d696e20726f6c6557686974656c6973746564526f6c653a2063616c6c657220646f6573206e6f742068617665207468652057686974656c697374656420726f6c65a165627a7a72305820d6bb3c9f8f111b2ca0ebf78bcd24852087565fe8493ec8673f922c0f05d95fde0029526f6c65733a206163636f756e7420697320746865207a65726f2061646472657373",
  "source": "pragma solidity ^0.5.0;\n\nimport './interfaces/ILiability.sol';\nimport './interfaces/IEmitent.sol';\nimport '../node_modules/openzeppelin-solidity/contracts/access/roles/WhitelistedRole.sol';\nimport './EnergyToken.sol';\n\ncontract Emitter is WhitelistedRole, IEmitter {\n    /**\n     * @dev Green certificate\n     */\n    struct Certificate {\n        address token;\n        uint256 value;\n    }\n\n    /**\n     * @dev Green certificate mapping by liability address\n     */\n    mapping(address => Certificate) public certificates;\n\n    function issueCertificate(address liability, address token, uint256 value) external onlyWhitelisted {\n        require(certificates[liability].value == 0);\n        certificates[liability].token = token;\n        certificates[liability].value = value;\n    }\n\n    function claimCertificate(address liability) external {\n        require(certificates[liability].value > 0);\n        require(ILiability(liability).isFinalized());\n\n        EnergyToken _token = EnergyToken(certificates[liability].token);\n        _token.mint(msg.sender, certificates[liability].value);\n\n        // Free storage space, for a gas refund reasons\n        delete certificates[liability];\n    }\n}\n\n",
  "sourcePath": "/home/vadim/Projects/issuing-service-package/contracts/contracts/Emitter.sol",
  "compiler": {
    "name": "solc",
    "version": "0.5.7+commit.6da8b019.Emscripten.clang"
  },
  "schemaVersion": "3.0.11",
  "updatedAt": "2019-07-13T14:17:55.813Z",
  "devdoc": {
    "methods": {}
  },
  "userdoc": {
    "methods": {}
  }
}