{
  "contractName": "Emitter",
  "abi": [
    {
      "constant": true,
      "inputs": [
        {
          "name": "",
          "type": "address"
        }
      ],
      "name": "certificates",
      "outputs": [
        {
          "name": "token",
          "type": "address"
        },
        {
          "name": "value",
          "type": "uint256"
        }
      ],
      "payable": false,
      "stateMutability": "view",
      "type": "function"
    },
    {
      "constant": false,
      "inputs": [],
      "name": "renounceOwnership",
      "outputs": [],
      "payable": false,
      "stateMutability": "nonpayable",
      "type": "function"
    },
    {
      "constant": true,
      "inputs": [],
      "name": "owner",
      "outputs": [
        {
          "name": "",
          "type": "address"
        }
      ],
      "payable": false,
      "stateMutability": "view",
      "type": "function"
    },
    {
      "constant": true,
      "inputs": [],
      "name": "isOwner",
      "outputs": [
        {
          "name": "",
          "type": "bool"
        }
      ],
      "payable": false,
      "stateMutability": "view",
      "type": "function"
    },
    {
      "constant": false,
      "inputs": [
        {
          "name": "newOwner",
          "type": "address"
        }
      ],
      "name": "transferOwnership",
      "outputs": [],
      "payable": false,
      "stateMutability": "nonpayable",
      "type": "function"
    },
    {
      "anonymous": false,
      "inputs": [
        {
          "indexed": true,
          "name": "previousOwner",
          "type": "address"
        },
        {
          "indexed": true,
          "name": "newOwner",
          "type": "address"
        }
      ],
      "name": "OwnershipTransferred",
      "type": "event"
    },
    {
      "constant": false,
      "inputs": [
        {
          "name": "liability",
          "type": "address"
        },
        {
          "name": "token",
          "type": "address"
        },
        {
          "name": "value",
          "type": "uint256"
        }
      ],
      "name": "issueCertificate",
      "outputs": [],
      "payable": false,
      "stateMutability": "nonpayable",
      "type": "function"
    },
    {
      "constant": false,
      "inputs": [
        {
          "name": "liability",
          "type": "address"
        }
      ],
      "name": "claimCertificate",
      "outputs": [],
      "payable": false,
      "stateMutability": "nonpayable",
      "type": "function"
    }
  ],
  "bytecode": "0x6080604081905260008054600160a060020a0319163317808255600160a060020a0316917f8be0079c531659141344cd1fd0a4f28419497f9722a3daafe3b4186f6b6457e0908290a3610674806100576000396000f3fe608060405234801561001057600080fd5b5060043610610099576000357c0100000000000000000000000000000000000000000000000000000000900480637556aadc116100785780637556aadc146101175780638da5cb5b1461014d5780638f32d59b14610171578063f2fde38b1461018d57610099565b806216e5261461009e578063144f5e22146100e7578063715018a61461010f575b600080fd5b6100c4600480360360208110156100b457600080fd5b5035600160a060020a03166101b3565b60408051600160a060020a03909316835260208301919091528051918290030190f35b61010d600480360360208110156100fd57600080fd5b5035600160a060020a03166101d8565b005b61010d610370565b61010d6004803603606081101561012d57600080fd5b50600160a060020a03813581169160208101359091169060400135610423565b6101556104ea565b60408051600160a060020a039092168252519081900360200190f35b6101796104f9565b604080519115158252519081900360200190f35b61010d600480360360208110156101a357600080fd5b5035600160a060020a031661050a565b60016020819052600091825260409091208054910154600160a060020a039091169082565b600160a060020a038116600090815260016020819052604090912001546101fe57600080fd5b80600160a060020a0316638d4e40836040518163ffffffff167c010000000000000000000000000000000000000000000000000000000002815260040160206040518083038186803b15801561025357600080fd5b505afa158015610267573d6000803e3d6000fd5b505050506040513d602081101561027d57600080fd5b505161028857600080fd5b600160a060020a038082166000908152600160208181526040808420805493015481517f40c10f1900000000000000000000000000000000000000000000000000000000815233600482015260248101919091529051929094169384936340c10f1993604480840194939192918390030190829087803b15801561030b57600080fd5b505af115801561031f573d6000803e3d6000fd5b505050506040513d602081101561033557600080fd5b505050600160a060020a031660009081526001602081905260408220805473ffffffffffffffffffffffffffffffffffffffff191681550155565b6103786104f9565b6103cc576040805160e560020a62461bcd02815260206004820181905260248201527f4f776e61626c653a2063616c6c6572206973206e6f7420746865206f776e6572604482015290519081900360640190fd5b60008054604051600160a060020a03909116907f8be0079c531659141344cd1fd0a4f28419497f9722a3daafe3b4186f6b6457e0908390a36000805473ffffffffffffffffffffffffffffffffffffffff19169055565b61042b6104f9565b61047f576040805160e560020a62461bcd02815260206004820181905260248201527f4f776e61626c653a2063616c6c6572206973206e6f7420746865206f776e6572604482015290519081900360640190fd5b600160a060020a03831660009081526001602081905260409091200154156104a657600080fd5b600160a060020a039283166000908152600160208190526040909120805473ffffffffffffffffffffffffffffffffffffffff191693909416929092178355910155565b600054600160a060020a031690565b600054600160a060020a0316331490565b6105126104f9565b610566576040805160e560020a62461bcd02815260206004820181905260248201527f4f776e61626c653a2063616c6c6572206973206e6f7420746865206f776e6572604482015290519081900360640190fd5b61056f81610572565b50565b600160a060020a0381166105ba5760405160e560020a62461bcd0281526004018080602001828103825260268152602001806106236026913960400191505060405180910390fd5b60008054604051600160a060020a03808516939216917f8be0079c531659141344cd1fd0a4f28419497f9722a3daafe3b4186f6b6457e091a36000805473ffffffffffffffffffffffffffffffffffffffff1916600160a060020a039290921691909117905556fe4f776e61626c653a206e6577206f776e657220697320746865207a65726f2061646472657373a165627a7a72305820524d75f6fb76f51d1cdecf1a3fca30d0636e756985cf5dc67ac67bba6fc63d580029",
  "source": "pragma solidity ^0.5.0;\n\nimport './interfaces/ILiability.sol';\nimport './interfaces/IEmitent.sol';\nimport '../node_modules/openzeppelin-solidity/contracts/ownership/Ownable.sol';\nimport './EnergyToken.sol';\n\ncontract Emitter is Ownable, IEmitter {\n    /**\n     * @dev Green certificate\n     */\n    struct Certificate {\n        address token;\n        uint256 value;\n    }\n\n    /**\n     * @dev Green certificate mapping by liability address\n     */\n    mapping(address => Certificate) public certificates;\n\n    function issueCertificate(address liability, address token, uint256 value) external onlyOwner {\n        require(certificates[liability].value == 0);\n        certificates[liability].token = token;\n        certificates[liability].value = value;\n    }\n\n    function claimCertificate(address liability) external {\n        require(certificates[liability].value > 0);\n        require(ILiability(liability).isFinalized());\n\n        EnergyToken _token = EnergyToken(certificates[liability].token);\n        _token.mint(msg.sender, certificates[liability].value);\n\n        // Free storage space, for a gas refund reasons\n        delete certificates[liability];\n    }\n}\n\n",
  "sourcePath": "/home/vadim/Projects/issuing-service-package/contracts/contracts/Emitter.sol",
  "compiler": {
    "name": "solc",
    "version": "0.5.7+commit.6da8b019.Emscripten.clang"
  },
  "schemaVersion": "3.0.11",
  "updatedAt": "2019-07-12T17:25:40.378Z",
  "devdoc": {
    "methods": {
      "isOwner()": {
        "details": "Returns true if the caller is the current owner."
      },
      "owner()": {
        "details": "Returns the address of the current owner."
      },
      "renounceOwnership()": {
        "details": "Leaves the contract without owner. It will not be possible to call `onlyOwner` functions anymore. Can only be called by the current owner.     * > Note: Renouncing ownership will leave the contract without an owner, thereby removing any functionality that is only available to the owner."
      },
      "transferOwnership(address)": {
        "details": "Transfers ownership of the contract to a new account (`newOwner`). Can only be called by the current owner."
      }
    }
  },
  "userdoc": {
    "methods": {}
  }
}