{
  "contractName": "Emitter",
  "abi": [
    {
      "constant": true,
      "inputs": [
        {
          "name": "",
          "type": "address"
        }
      ],
      "name": "certificates",
      "outputs": [
        {
          "name": "token",
          "type": "address"
        },
        {
          "name": "value",
          "type": "uint256"
        }
      ],
      "payable": false,
      "stateMutability": "view",
      "type": "function"
    },
    {
      "constant": false,
      "inputs": [
        {
          "name": "account",
          "type": "address"
        }
      ],
      "name": "addWhitelisted",
      "outputs": [],
      "payable": false,
      "stateMutability": "nonpayable",
      "type": "function"
    },
    {
      "constant": false,
      "inputs": [
        {
          "name": "account",
          "type": "address"
        }
      ],
      "name": "removeWhitelisted",
      "outputs": [],
      "payable": false,
      "stateMutability": "nonpayable",
      "type": "function"
    },
    {
      "constant": true,
      "inputs": [
        {
          "name": "account",
          "type": "address"
        }
      ],
      "name": "isWhitelisted",
      "outputs": [
        {
          "name": "",
          "type": "bool"
        }
      ],
      "payable": false,
      "stateMutability": "view",
      "type": "function"
    },
    {
      "constant": false,
      "inputs": [],
      "name": "renounceWhitelistAdmin",
      "outputs": [],
      "payable": false,
      "stateMutability": "nonpayable",
      "type": "function"
    },
    {
      "constant": false,
      "inputs": [
        {
          "name": "account",
          "type": "address"
        }
      ],
      "name": "addWhitelistAdmin",
      "outputs": [],
      "payable": false,
      "stateMutability": "nonpayable",
      "type": "function"
    },
    {
      "constant": true,
      "inputs": [
        {
          "name": "account",
          "type": "address"
        }
      ],
      "name": "isWhitelistAdmin",
      "outputs": [
        {
          "name": "",
          "type": "bool"
        }
      ],
      "payable": false,
      "stateMutability": "view",
      "type": "function"
    },
    {
      "constant": false,
      "inputs": [],
      "name": "renounceWhitelisted",
      "outputs": [],
      "payable": false,
      "stateMutability": "nonpayable",
      "type": "function"
    },
    {
      "anonymous": false,
      "inputs": [
        {
          "indexed": false,
          "name": "addr",
          "type": "address"
        },
        {
          "indexed": false,
          "name": "value",
          "type": "uint256"
        }
      ],
      "name": "NewToken",
      "type": "event"
    },
    {
      "anonymous": false,
      "inputs": [
        {
          "indexed": true,
          "name": "account",
          "type": "address"
        }
      ],
      "name": "WhitelistedAdded",
      "type": "event"
    },
    {
      "anonymous": false,
      "inputs": [
        {
          "indexed": true,
          "name": "account",
          "type": "address"
        }
      ],
      "name": "WhitelistedRemoved",
      "type": "event"
    },
    {
      "anonymous": false,
      "inputs": [
        {
          "indexed": true,
          "name": "account",
          "type": "address"
        }
      ],
      "name": "WhitelistAdminAdded",
      "type": "event"
    },
    {
      "anonymous": false,
      "inputs": [
        {
          "indexed": true,
          "name": "account",
          "type": "address"
        }
      ],
      "name": "WhitelistAdminRemoved",
      "type": "event"
    },
    {
      "constant": false,
      "inputs": [
        {
          "name": "liability",
          "type": "address"
        },
        {
          "name": "value",
          "type": "uint256"
        }
      ],
      "name": "issueCertificate",
      "outputs": [],
      "payable": false,
      "stateMutability": "nonpayable",
      "type": "function"
    },
    {
      "constant": false,
      "inputs": [
        {
          "name": "liability",
          "type": "address"
        }
      ],
      "name": "claimCertificate",
      "outputs": [],
      "payable": false,
      "stateMutability": "nonpayable",
      "type": "function"
    }
  ],
  "bytecode": "0x60806040526100163364010000000061001b810204565b61018f565b61003360008264010000000061078061006a82021704565b604051600160a060020a038216907f22380c05984257a1cb900161c713dd71d39e74820f1aea43bd3f1bdd2096129990600090a250565b61007d828264010000000061010e810204565b156100e957604080517f08c379a000000000000000000000000000000000000000000000000000000000815260206004820152601f60248201527f526f6c65733a206163636f756e7420616c72656164792068617320726f6c6500604482015290519081900360640190fd5b600160a060020a0316600090815260209190915260409020805460ff19166001179055565b6000600160a060020a03821661016f576040517f08c379a0000000000000000000000000000000000000000000000000000000008152600401808060200182810382526022815260200180611dad6022913960400191505060405180910390fd5b50600160a060020a03166000908152602091909152604090205460ff1690565b611c0f8061019e6000396000f3fe60806040523480156200001157600080fd5b5060043610620000c8576000357c0100000000000000000000000000000000000000000000000000000000900480634c5a628c116200008c5780634c5a628c14620001d35780636c4ecd8414620001dd5780637362d9c8146200020c578063bb5f747b1462000235578063d6cd9473146200025e57620000c8565b806216e52614620000cd57806310154bad1462000119578063144f5e221462000144578063291d9549146200016d5780633af32abf1462000196575b600080fd5b620000f660048036036020811015620000e557600080fd5b5035600160a060020a031662000268565b60408051600160a060020a03909316835260208301919091528051918290030190f35b62000142600480360360208110156200013157600080fd5b5035600160a060020a03166200028d565b005b62000142600480360360208110156200015c57600080fd5b5035600160a060020a0316620002e6565b62000142600480360360208110156200018557600080fd5b5035600160a060020a0316620003f8565b620001bf60048036036020811015620001ae57600080fd5b5035600160a060020a03166200044e565b604080519115158252519081900360200190f35b6200014262000469565b6200014260048036036040811015620001f557600080fd5b50600160a060020a03813516906020013562000476565b62000142600480360360208110156200022457600080fd5b5035600160a060020a031662000577565b620001bf600480360360208110156200024d57600080fd5b5035600160a060020a0316620005cd565b62000142620005e1565b60026020526000908152604090208054600190910154600160a060020a039091169082565b6200029833620005cd565b620002d85760405160e560020a62461bcd02815260040180806020018281038252604081526020018062001b6a6040913960400191505060405180910390fd5b620002e381620005ec565b50565b600160a060020a0381166000908152600260205260409020600101546200030c57600080fd5b600160a060020a038082166000908152600260209081526040808320805460019091015482517f40c10f190000000000000000000000000000000000000000000000000000000081523360048201526024810191909152915194169384936340c10f1993604480850194919392918390030190829087803b1580156200039157600080fd5b505af1158015620003a6573d6000803e3d6000fd5b505050506040513d6020811015620003bd57600080fd5b505050600160a060020a03166000908152600260205260408120805473ffffffffffffffffffffffffffffffffffffffff1916815560010155565b6200040333620005cd565b620004435760405160e560020a62461bcd02815260040180806020018281038252604081526020018062001b6a6040913960400191505060405180910390fd5b620002e38162000636565b60006200046360018363ffffffff6200068016565b92915050565b6200047433620006ec565b565b62000481336200044e565b620004c15760405160e560020a62461bcd02815260040180806020018281038252603a81526020018062001baa603a913960400191505060405180910390fd5b6000604051620004d19062000875565b604051809103906000f080158015620004ee573d6000803e3d6000fd5b5060408051600160a060020a03831681526020810185905281519293507f275a11e033325e9b28a23131fcc7e243a49bb38beb686051976dd8c8899d9a3c929081900390910190a1600160a060020a039283166000908152600260205260409020805473ffffffffffffffffffffffffffffffffffffffff191691909316178255600190910155565b6200058233620005cd565b620005c25760405160e560020a62461bcd02815260040180806020018281038252604081526020018062001b6a6040913960400191505060405180910390fd5b620002e38162000736565b600062000463818363ffffffff6200068016565b620004743362000636565b620005ff60018263ffffffff6200078016565b604051600160a060020a038216907fee1504a83b6d4a361f4c1dc78ab59bfa30d6a3b6612c403e86bb01ef2984295f90600090a250565b6200064960018263ffffffff6200080716565b604051600160a060020a038216907f270d9b30cf5b0793bbfd54c9d5b94aeb49462b8148399000265144a8722da6b690600090a250565b6000600160a060020a038216620006cc5760405160e560020a62461bcd02815260040180806020018281038252602281526020018062001b486022913960400191505060405180910390fd5b50600160a060020a03166000908152602091909152604090205460ff1690565b620006ff60008263ffffffff6200080716565b604051600160a060020a038216907f0a8eb35e5ca14b3d6f28e4abf2f128dbab231a58b56e89beb5d636115001e16590600090a250565b6200074960008263ffffffff6200078016565b604051600160a060020a038216907f22380c05984257a1cb900161c713dd71d39e74820f1aea43bd3f1bdd2096129990600090a250565b6200078c828262000680565b15620007e2576040805160e560020a62461bcd02815260206004820152601f60248201527f526f6c65733a206163636f756e7420616c72656164792068617320726f6c6500604482015290519081900360640190fd5b600160a060020a0316600090815260209190915260409020805460ff19166001179055565b62000813828262000680565b620008535760405160e560020a62461bcd02815260040180806020018281038252602181526020018062001b276021913960400191505060405180910390fd5b600160a060020a0316600090815260209190915260409020805460ff19169055565b6112a380620008848339019056fe60806040523480156200001157600080fd5b506040518060400160405280601781526020017f477265656e20436572746966696361746520546f6b656e0000000000000000008152506040518060400160405280600381526020017f474354000000000000000000000000000000000000000000000000000000000081525060038260009080519060200190620000989291906200025c565b508151620000ae9060019060208501906200025c565b506002805460ff191660ff9290921691909117905550620000da905033640100000000620000e0810204565b62000301565b620000fb60068264010000000062000d346200013282021704565b604051600160a060020a038216907f6ae172837ea30b801fbfcdd4108aa1d5bf8ff775444fd70256b44e6bf3dfc3f690600090a250565b620001478282640100000000620001d9810204565b15620001b457604080517f08c379a000000000000000000000000000000000000000000000000000000000815260206004820152601f60248201527f526f6c65733a206163636f756e7420616c72656164792068617320726f6c6500604482015290519081900360640190fd5b600160a060020a0316600090815260209190915260409020805460ff19166001179055565b6000600160a060020a0382166200023c576040517f08c379a0000000000000000000000000000000000000000000000000000000008152600401808060200182810382526022815260200180620012816022913960400191505060405180910390fd5b50600160a060020a03166000908152602091909152604090205460ff1690565b828054600181600116156101000203166002900490600052602060002090601f016020900481019282601f106200029f57805160ff1916838001178555620002cf565b82800160010185558215620002cf579182015b82811115620002cf578251825591602001919060010190620002b2565b50620002dd929150620002e1565b5090565b620002fe91905b80821115620002dd5760008155600101620002e8565b90565b610f7080620003116000396000f3fe608060405234801561001057600080fd5b5060043610610128576000357c01000000000000000000000000000000000000000000000000000000009004806370a08231116100bf578063986502751161008e578063986502751461034f578063a457c2d714610357578063a9059cbb14610383578063aa271e1a146103af578063dd62ed3e146103d557610128565b806370a08231146102cf57806379cc6790146102f557806395d89b4114610321578063983b2d561461032957610128565b8063313ce567116100fb578063313ce5671461023a578063395093511461025857806340c10f191461028457806342966c68146102b057610128565b806306fdde031461012d578063095ea7b3146101aa57806318160ddd146101ea57806323b872dd14610204575b600080fd5b610135610403565b6040805160208082528351818301528351919283929083019185019080838360005b8381101561016f578181015183820152602001610157565b50505050905090810190601f16801561019c5780820380516001836020036101000a031916815260200191505b509250505060405180910390f35b6101d6600480360360408110156101c057600080fd5b50600160a060020a038135169060200135610499565b604080519115158252519081900360200190f35b6101f26104af565b60408051918252519081900360200190f35b6101d66004803603606081101561021a57600080fd5b50600160a060020a038135811691602081013590911690604001356104b5565b61024261050c565b6040805160ff9092168252519081900360200190f35b6101d66004803603604081101561026e57600080fd5b50600160a060020a038135169060200135610515565b6101d66004803603604081101561029a57600080fd5b50600160a060020a038135169060200135610551565b6102cd600480360360208110156102c657600080fd5b50356105a4565b005b6101f2600480360360208110156102e557600080fd5b5035600160a060020a03166105b1565b6102cd6004803603604081101561030b57600080fd5b50600160a060020a0381351690602001356105cc565b6101356105da565b6102cd6004803603602081101561033f57600080fd5b5035600160a060020a031661063a565b6102cd61068a565b6101d66004803603604081101561036d57600080fd5b50600160a060020a038135169060200135610695565b6101d66004803603604081101561039957600080fd5b50600160a060020a0381351690602001356106d1565b6101d6600480360360208110156103c557600080fd5b5035600160a060020a03166106de565b6101f2600480360360408110156103eb57600080fd5b50600160a060020a03813581169160200135166106f7565b60008054604080516020601f600260001961010060018816150201909516949094049384018190048102820181019092528281526060939092909183018282801561048f5780601f106104645761010080835404028352916020019161048f565b820191906000526020600020905b81548152906001019060200180831161047257829003601f168201915b5050505050905090565b60006104a6338484610722565b50600192915050565b60055490565b60006104c2848484610814565b600160a060020a0384166000908152600460209081526040808320338085529252909120546105029186916104fd908663ffffffff61095e16565b610722565b5060019392505050565b60025460ff1690565b336000818152600460209081526040808320600160a060020a038716845290915281205490916104a69185906104fd908663ffffffff6109be16565b600061055c336106de565b61059a5760405160e560020a62461bcd028152600401808060200182810382526030815260200180610e686030913960400191505060405180910390fd5b6104a68383610a22565b6105ae3382610b17565b50565b600160a060020a031660009081526003602052604090205490565b6105d68282610bf5565b5050565b60018054604080516020601f6002600019610100878916150201909516949094049384018190048102820181019092528281526060939092909183018282801561048f5780601f106104645761010080835404028352916020019161048f565b610643336106de565b6106815760405160e560020a62461bcd028152600401808060200182810382526030815260200180610e686030913960400191505060405180910390fd5b6105ae81610c3a565b61069333610c82565b565b336000818152600460209081526040808320600160a060020a038716845290915281205490916104a69185906104fd908663ffffffff61095e16565b60006104a6338484610814565b60006106f160068363ffffffff610cca16565b92915050565b600160a060020a03918216600090815260046020908152604080832093909416825291909152205490565b600160a060020a03831661076a5760405160e560020a62461bcd028152600401808060200182810382526024815260200180610f216024913960400191505060405180910390fd5b600160a060020a0382166107b25760405160e560020a62461bcd028152600401808060200182810382526022815260200180610e466022913960400191505060405180910390fd5b600160a060020a03808416600081815260046020908152604080832094871680845294825291829020859055815185815291517f8c5be1e5ebec7d5bd14f71427d1e84f3dd0314c0f7b2291e5b200ac8c7c3b9259281900390910190a3505050565b600160a060020a03831661085c5760405160e560020a62461bcd028152600401808060200182810382526025815260200180610efc6025913960400191505060405180910390fd5b600160a060020a0382166108a45760405160e560020a62461bcd028152600401808060200182810382526023815260200180610e236023913960400191505060405180910390fd5b600160a060020a0383166000908152600360205260409020546108cd908263ffffffff61095e16565b600160a060020a038085166000908152600360205260408082209390935590841681522054610902908263ffffffff6109be16565b600160a060020a0380841660008181526003602090815260409182902094909455805185815290519193928716927fddf252ad1be2c89b69c2b068fc378daa952ba7f163c4a11628f55a4df523b3ef92918290030190a3505050565b6000828211156109b8576040805160e560020a62461bcd02815260206004820152601e60248201527f536166654d6174683a207375627472616374696f6e206f766572666c6f770000604482015290519081900360640190fd5b50900390565b600082820183811015610a1b576040805160e560020a62461bcd02815260206004820152601b60248201527f536166654d6174683a206164646974696f6e206f766572666c6f770000000000604482015290519081900360640190fd5b9392505050565b600160a060020a038216610a80576040805160e560020a62461bcd02815260206004820152601f60248201527f45524332303a206d696e7420746f20746865207a65726f206164647265737300604482015290519081900360640190fd5b600554610a93908263ffffffff6109be16565b600555600160a060020a038216600090815260036020526040902054610abf908263ffffffff6109be16565b600160a060020a03831660008181526003602090815260408083209490945583518581529351929391927fddf252ad1be2c89b69c2b068fc378daa952ba7f163c4a11628f55a4df523b3ef9281900390910190a35050565b600160a060020a038216610b5f5760405160e560020a62461bcd028152600401808060200182810382526021815260200180610edb6021913960400191505060405180910390fd5b600554610b72908263ffffffff61095e16565b600555600160a060020a038216600090815260036020526040902054610b9e908263ffffffff61095e16565b600160a060020a0383166000818152600360209081526040808320949094558351858152935191937fddf252ad1be2c89b69c2b068fc378daa952ba7f163c4a11628f55a4df523b3ef929081900390910190a35050565b610bff8282610b17565b600160a060020a0382166000908152600460209081526040808320338085529252909120546105d69184916104fd908563ffffffff61095e16565b610c4b60068263ffffffff610d3416565b604051600160a060020a038216907f6ae172837ea30b801fbfcdd4108aa1d5bf8ff775444fd70256b44e6bf3dfc3f690600090a250565b610c9360068263ffffffff610db816565b604051600160a060020a038216907fe94479a9f7e1952cc78f2d6baab678adc1b772d936c6583def489e524cb6669290600090a250565b6000600160a060020a038216610d145760405160e560020a62461bcd028152600401808060200182810382526022815260200180610eb96022913960400191505060405180910390fd5b50600160a060020a03166000908152602091909152604090205460ff1690565b610d3e8282610cca565b15610d93576040805160e560020a62461bcd02815260206004820152601f60248201527f526f6c65733a206163636f756e7420616c72656164792068617320726f6c6500604482015290519081900360640190fd5b600160a060020a0316600090815260209190915260409020805460ff19166001179055565b610dc28282610cca565b610e005760405160e560020a62461bcd028152600401808060200182810382526021815260200180610e986021913960400191505060405180910390fd5b600160a060020a0316600090815260209190915260409020805460ff1916905556fe45524332303a207472616e7366657220746f20746865207a65726f206164647265737345524332303a20617070726f766520746f20746865207a65726f20616464726573734d696e746572526f6c653a2063616c6c657220646f6573206e6f74206861766520746865204d696e74657220726f6c65526f6c65733a206163636f756e7420646f6573206e6f74206861766520726f6c65526f6c65733a206163636f756e7420697320746865207a65726f206164647265737345524332303a206275726e2066726f6d20746865207a65726f206164647265737345524332303a207472616e736665722066726f6d20746865207a65726f206164647265737345524332303a20617070726f76652066726f6d20746865207a65726f2061646472657373a165627a7a72305820f2b596bc5d08c6d6f146f1bd42bdf53b9c4363e8651eac16a0f42faba49b62ba0029526f6c65733a206163636f756e7420697320746865207a65726f2061646472657373526f6c65733a206163636f756e7420646f6573206e6f74206861766520726f6c65526f6c65733a206163636f756e7420697320746865207a65726f206164647265737357686974656c69737441646d696e526f6c653a2063616c6c657220646f6573206e6f742068617665207468652057686974656c69737441646d696e20726f6c6557686974656c6973746564526f6c653a2063616c6c657220646f6573206e6f742068617665207468652057686974656c697374656420726f6c65a165627a7a72305820a57a3a5ab540138c403595d84ad0a4244cf317f66c0be3545b65434b55d4c3140029526f6c65733a206163636f756e7420697320746865207a65726f2061646472657373",
  "source": "pragma solidity ^0.5.0;\n\nimport './interfaces/ILiability.sol';\nimport './interfaces/IEmitent.sol';\nimport '../node_modules/openzeppelin-solidity/contracts/access/roles/WhitelistedRole.sol';\nimport './EnergyToken.sol';\n\ncontract Emitter is WhitelistedRole, IEmitter {\n    /**\n     * @dev Green certificate\n     */\n    struct Certificate {\n        address token;\n        uint256 value;\n    }\n\n    event NewToken(address addr, uint256 value);\n\n    /**\n     * @dev Green certificate mapping by liability address\n     */\n    mapping(address => Certificate) public certificates;\n\n    function issueCertificate(address liability, uint256 value) external onlyWhitelisted {\n        // require(certificates[liability].value == 0);\n\n        EnergyToken et = new EnergyToken();\n\n        emit NewToken(address(et), value);\n        certificates[liability].token = address(et);\n        certificates[liability].value = value;\n    }\n\n    function claimCertificate(address liability) external {\n        require(certificates[liability].value > 0);\n        // require(ILiability(liability).isFinalized());\n\n        EnergyToken _token = EnergyToken(certificates[liability].token);\n        _token.mint(msg.sender, certificates[liability].value);\n\n        // Free storage space, for a gas refund reasons\n        delete certificates[liability];\n    }\n}\n\n",
  "sourcePath": "/home/vadim/Projects/issuing-service-package/contracts/contracts/Emitter.sol",
  "compiler": {
    "name": "solc",
    "version": "0.5.7+commit.6da8b019.Emscripten.clang"
  },
  "schemaVersion": "3.0.11",
  "updatedAt": "2019-08-26T12:37:56.180Z",
  "devdoc": {
    "methods": {}
  },
  "userdoc": {
    "methods": {}
  }
}