{
  "contractName": "Emitter",
  "abi": [
    {
      "constant": true,
      "inputs": [
        {
          "name": "",
          "type": "address"
        }
      ],
      "name": "certificates",
      "outputs": [
        {
          "name": "token",
          "type": "address"
        },
        {
          "name": "value",
          "type": "uint256"
        }
      ],
      "payable": false,
      "stateMutability": "view",
      "type": "function"
    },
    {
      "constant": false,
      "inputs": [
        {
          "name": "account",
          "type": "address"
        }
      ],
      "name": "addWhitelisted",
      "outputs": [],
      "payable": false,
      "stateMutability": "nonpayable",
      "type": "function"
    },
    {
      "constant": false,
      "inputs": [
        {
          "name": "account",
          "type": "address"
        }
      ],
      "name": "removeWhitelisted",
      "outputs": [],
      "payable": false,
      "stateMutability": "nonpayable",
      "type": "function"
    },
    {
      "constant": true,
      "inputs": [
        {
          "name": "account",
          "type": "address"
        }
      ],
      "name": "isWhitelisted",
      "outputs": [
        {
          "name": "",
          "type": "bool"
        }
      ],
      "payable": false,
      "stateMutability": "view",
      "type": "function"
    },
    {
      "constant": false,
      "inputs": [],
      "name": "renounceWhitelistAdmin",
      "outputs": [],
      "payable": false,
      "stateMutability": "nonpayable",
      "type": "function"
    },
    {
      "constant": false,
      "inputs": [
        {
          "name": "account",
          "type": "address"
        }
      ],
      "name": "addWhitelistAdmin",
      "outputs": [],
      "payable": false,
      "stateMutability": "nonpayable",
      "type": "function"
    },
    {
      "constant": true,
      "inputs": [
        {
          "name": "account",
          "type": "address"
        }
      ],
      "name": "isWhitelistAdmin",
      "outputs": [
        {
          "name": "",
          "type": "bool"
        }
      ],
      "payable": false,
      "stateMutability": "view",
      "type": "function"
    },
    {
      "constant": false,
      "inputs": [],
      "name": "renounceWhitelisted",
      "outputs": [],
      "payable": false,
      "stateMutability": "nonpayable",
      "type": "function"
    },
    {
      "anonymous": false,
      "inputs": [
        {
          "indexed": false,
          "name": "addr",
          "type": "address"
        },
        {
          "indexed": false,
          "name": "value",
          "type": "uint256"
        }
      ],
      "name": "NewToken",
      "type": "event"
    },
    {
      "anonymous": false,
      "inputs": [
        {
          "indexed": true,
          "name": "account",
          "type": "address"
        }
      ],
      "name": "WhitelistedAdded",
      "type": "event"
    },
    {
      "anonymous": false,
      "inputs": [
        {
          "indexed": true,
          "name": "account",
          "type": "address"
        }
      ],
      "name": "WhitelistedRemoved",
      "type": "event"
    },
    {
      "anonymous": false,
      "inputs": [
        {
          "indexed": true,
          "name": "account",
          "type": "address"
        }
      ],
      "name": "WhitelistAdminAdded",
      "type": "event"
    },
    {
      "anonymous": false,
      "inputs": [
        {
          "indexed": true,
          "name": "account",
          "type": "address"
        }
      ],
      "name": "WhitelistAdminRemoved",
      "type": "event"
    },
    {
      "constant": false,
      "inputs": [
        {
          "name": "liability",
          "type": "address"
        },
        {
          "name": "value",
          "type": "uint256"
        }
      ],
      "name": "issueCertificate",
      "outputs": [],
      "payable": false,
      "stateMutability": "nonpayable",
      "type": "function"
    },
    {
      "constant": false,
      "inputs": [
        {
          "name": "liability",
          "type": "address"
        }
      ],
      "name": "claimCertificate",
      "outputs": [],
      "payable": false,
      "stateMutability": "nonpayable",
      "type": "function"
    }
  ],
  "bytecode": "0x60806040526100133361001860201b60201c565b610189565b61003081600061006760201b6107cc1790919060201c565b6040516001600160a01b038216907f22380c05984257a1cb900161c713dd71d39e74820f1aea43bd3f1bdd2096129990600090a250565b610077828261010860201b60201c565b156100e357604080517f08c379a000000000000000000000000000000000000000000000000000000000815260206004820152601f60248201527f526f6c65733a206163636f756e7420616c72656164792068617320726f6c6500604482015290519081900360640190fd5b6001600160a01b0316600090815260209190915260409020805460ff19166001179055565b60006001600160a01b038216610169576040517f08c379a0000000000000000000000000000000000000000000000000000000008152600401808060200182810382526022815260200180611dd16022913960400191505060405180910390fd5b506001600160a01b03166000908152602091909152604090205460ff1690565b611c39806101986000396000f3fe60806040523480156200001157600080fd5b5060043610620000ab5760003560e01c80634c5a628c116200006f5780634c5a628c14620001b65780636c4ecd8414620001c05780637362d9c814620001ef578063bb5f747b1462000218578063d6cd9473146200024157620000ab565b806216e52614620000b057806310154bad14620000fc578063144f5e221462000127578063291d954914620001505780633af32abf1462000179575b600080fd5b620000d960048036036020811015620000c857600080fd5b50356001600160a01b03166200024b565b604080516001600160a01b03909316835260208301919091528051918290030190f35b62000125600480360360208110156200011457600080fd5b50356001600160a01b031662000270565b005b62000125600480360360208110156200013f57600080fd5b50356001600160a01b0316620002c9565b62000125600480360360208110156200016857600080fd5b50356001600160a01b03166200042a565b620001a2600480360360208110156200019157600080fd5b50356001600160a01b031662000480565b604080519115158252519081900360200190f35b620001256200049b565b6200012560048036036040811015620001d857600080fd5b506001600160a01b038135169060200135620004a8565b62000125600480360360208110156200020757600080fd5b50356001600160a01b0316620005c3565b620001a2600480360360208110156200023057600080fd5b50356001600160a01b031662000619565b620001256200062d565b600260205260009081526040902080546001909101546001600160a01b039091169082565b6200027b3362000619565b620002bb57604051600160e51b62461bcd02815260040180806020018281038252604081526020018062001b946040913960400191505060405180910390fd5b620002c68162000638565b50565b6001600160a01b038116600090815260026020526040902060010154620002ef57600080fd5b806001600160a01b0316638d4e40836040518163ffffffff1660e01b815260040160206040518083038186803b1580156200032957600080fd5b505afa1580156200033e573d6000803e3d6000fd5b505050506040513d60208110156200035557600080fd5b50516200036157600080fd5b6001600160a01b03808216600090815260026020908152604080832080546001909101548251600160e01b6340c10f190281523360048201526024810191909152915194169384936340c10f1993604480850194919392918390030190829087803b158015620003d057600080fd5b505af1158015620003e5573d6000803e3d6000fd5b505050506040513d6020811015620003fc57600080fd5b5050506001600160a01b0316600090815260026020526040812080546001600160a01b031916815560010155565b620004353362000619565b6200047557604051600160e51b62461bcd02815260040180806020018281038252604081526020018062001b946040913960400191505060405180910390fd5b620002c68162000682565b60006200049560018363ffffffff620006cc16565b92915050565b620004a63362000738565b565b620004b33362000480565b620004f357604051600160e51b62461bcd02815260040180806020018281038252603a81526020018062001bd4603a913960400191505060405180910390fd5b6001600160a01b038216600090815260026020526040902060010154156200051a57600080fd5b60006040516200052a90620008c1565b604051809103906000f08015801562000547573d6000803e3d6000fd5b50604080516001600160a01b03831681526020810185905281519293507f275a11e033325e9b28a23131fcc7e243a49bb38beb686051976dd8c8899d9a3c929081900390910190a16001600160a01b03928316600090815260026020526040902080546001600160a01b03191691909316178255600190910155565b620005ce3362000619565b6200060e57604051600160e51b62461bcd02815260040180806020018281038252604081526020018062001b946040913960400191505060405180910390fd5b620002c68162000782565b600062000495818363ffffffff620006cc16565b620004a63362000682565b6200064b60018263ffffffff620007cc16565b6040516001600160a01b038216907fee1504a83b6d4a361f4c1dc78ab59bfa30d6a3b6612c403e86bb01ef2984295f90600090a250565b6200069560018263ffffffff6200085316565b6040516001600160a01b038216907f270d9b30cf5b0793bbfd54c9d5b94aeb49462b8148399000265144a8722da6b690600090a250565b60006001600160a01b0382166200071857604051600160e51b62461bcd02815260040180806020018281038252602281526020018062001b726022913960400191505060405180910390fd5b506001600160a01b03166000908152602091909152604090205460ff1690565b6200074b60008263ffffffff6200085316565b6040516001600160a01b038216907f0a8eb35e5ca14b3d6f28e4abf2f128dbab231a58b56e89beb5d636115001e16590600090a250565b6200079560008263ffffffff620007cc16565b6040516001600160a01b038216907f22380c05984257a1cb900161c713dd71d39e74820f1aea43bd3f1bdd2096129990600090a250565b620007d88282620006cc565b156200082e5760408051600160e51b62461bcd02815260206004820152601f60248201527f526f6c65733a206163636f756e7420616c72656164792068617320726f6c6500604482015290519081900360640190fd5b6001600160a01b0316600090815260209190915260409020805460ff19166001179055565b6200085f8282620006cc565b6200089f57604051600160e51b62461bcd02815260040180806020018281038252602181526020018062001b516021913960400191505060405180910390fd5b6001600160a01b0316600090815260209190915260409020805460ff19169055565b61128180620008d08339019056fe60806040523480156200001157600080fd5b506040518060400160405280601781526020017f477265656e20436572746966696361746520546f6b656e0000000000000000008152506040518060400160405280600381526020017f4743540000000000000000000000000000000000000000000000000000000000815250600382600090805190602001906200009892919062000257565b508151620000ae90600190602085019062000257565b506002805460ff191660ff9290921691909117905550620000d8905033620000de602090811b901c565b620002fc565b620000f98160066200013060201b62000d171790919060201c565b6040516001600160a01b038216907f6ae172837ea30b801fbfcdd4108aa1d5bf8ff775444fd70256b44e6bf3dfc3f690600090a250565b620001428282620001d460201b60201c565b15620001af57604080517f08c379a000000000000000000000000000000000000000000000000000000000815260206004820152601f60248201527f526f6c65733a206163636f756e7420616c72656164792068617320726f6c6500604482015290519081900360640190fd5b6001600160a01b0316600090815260209190915260409020805460ff19166001179055565b60006001600160a01b03821662000237576040517f08c379a00000000000000000000000000000000000000000000000000000000081526004018080602001828103825260228152602001806200125f6022913960400191505060405180910390fd5b506001600160a01b03166000908152602091909152604090205460ff1690565b828054600181600116156101000203166002900490600052602060002090601f016020900481019282601f106200029a57805160ff1916838001178555620002ca565b82800160010185558215620002ca579182015b82811115620002ca578251825591602001919060010190620002ad565b50620002d8929150620002dc565b5090565b620002f991905b80821115620002d85760008155600101620002e3565b90565b610f53806200030c6000396000f3fe608060405234801561001057600080fd5b506004361061010b5760003560e01c806370a08231116100a257806398650275116100715780639865027514610332578063a457c2d71461033a578063a9059cbb14610366578063aa271e1a14610392578063dd62ed3e146103b85761010b565b806370a08231146102b257806379cc6790146102d857806395d89b4114610304578063983b2d561461030c5761010b565b8063313ce567116100de578063313ce5671461021d578063395093511461023b57806340c10f191461026757806342966c68146102935761010b565b806306fdde0314610110578063095ea7b31461018d57806318160ddd146101cd57806323b872dd146101e7575b600080fd5b6101186103e6565b6040805160208082528351818301528351919283929083019185019080838360005b8381101561015257818101518382015260200161013a565b50505050905090810190601f16801561017f5780820380516001836020036101000a031916815260200191505b509250505060405180910390f35b6101b9600480360360408110156101a357600080fd5b506001600160a01b03813516906020013561047c565b604080519115158252519081900360200190f35b6101d5610492565b60408051918252519081900360200190f35b6101b9600480360360608110156101fd57600080fd5b506001600160a01b03813581169160208101359091169060400135610498565b6102256104ef565b6040805160ff9092168252519081900360200190f35b6101b96004803603604081101561025157600080fd5b506001600160a01b0381351690602001356104f8565b6101b96004803603604081101561027d57600080fd5b506001600160a01b038135169060200135610534565b6102b0600480360360208110156102a957600080fd5b5035610587565b005b6101d5600480360360208110156102c857600080fd5b50356001600160a01b0316610594565b6102b0600480360360408110156102ee57600080fd5b506001600160a01b0381351690602001356105af565b6101186105bd565b6102b06004803603602081101561032257600080fd5b50356001600160a01b031661061d565b6102b061066d565b6101b96004803603604081101561035057600080fd5b506001600160a01b038135169060200135610678565b6101b96004803603604081101561037c57600080fd5b506001600160a01b0381351690602001356106b4565b6101b9600480360360208110156103a857600080fd5b50356001600160a01b03166106c1565b6101d5600480360360408110156103ce57600080fd5b506001600160a01b03813581169160200135166106da565b60008054604080516020601f60026000196101006001881615020190951694909404938401819004810282018101909252828152606093909290918301828280156104725780601f1061044757610100808354040283529160200191610472565b820191906000526020600020905b81548152906001019060200180831161045557829003601f168201915b5050505050905090565b6000610489338484610705565b50600192915050565b60055490565b60006104a58484846107f7565b6001600160a01b0384166000908152600460209081526040808320338085529252909120546104e59186916104e0908663ffffffff61094116565b610705565b5060019392505050565b60025460ff1690565b3360008181526004602090815260408083206001600160a01b038716845290915281205490916104899185906104e0908663ffffffff6109a116565b600061053f336106c1565b61057d57604051600160e51b62461bcd028152600401808060200182810382526030815260200180610e4b6030913960400191505060405180910390fd5b6104898383610a05565b6105913382610afa565b50565b6001600160a01b031660009081526003602052604090205490565b6105b98282610bd8565b5050565b60018054604080516020601f600260001961010087891615020190951694909404938401819004810282018101909252828152606093909290918301828280156104725780601f1061044757610100808354040283529160200191610472565b610626336106c1565b61066457604051600160e51b62461bcd028152600401808060200182810382526030815260200180610e4b6030913960400191505060405180910390fd5b61059181610c1d565b61067633610c65565b565b3360008181526004602090815260408083206001600160a01b038716845290915281205490916104899185906104e0908663ffffffff61094116565b60006104893384846107f7565b60006106d460068363ffffffff610cad16565b92915050565b6001600160a01b03918216600090815260046020908152604080832093909416825291909152205490565b6001600160a01b03831661074d57604051600160e51b62461bcd028152600401808060200182810382526024815260200180610f046024913960400191505060405180910390fd5b6001600160a01b03821661079557604051600160e51b62461bcd028152600401808060200182810382526022815260200180610e296022913960400191505060405180910390fd5b6001600160a01b03808416600081815260046020908152604080832094871680845294825291829020859055815185815291517f8c5be1e5ebec7d5bd14f71427d1e84f3dd0314c0f7b2291e5b200ac8c7c3b9259281900390910190a3505050565b6001600160a01b03831661083f57604051600160e51b62461bcd028152600401808060200182810382526025815260200180610edf6025913960400191505060405180910390fd5b6001600160a01b03821661088757604051600160e51b62461bcd028152600401808060200182810382526023815260200180610e066023913960400191505060405180910390fd5b6001600160a01b0383166000908152600360205260409020546108b0908263ffffffff61094116565b6001600160a01b0380851660009081526003602052604080822093909355908416815220546108e5908263ffffffff6109a116565b6001600160a01b0380841660008181526003602090815260409182902094909455805185815290519193928716927fddf252ad1be2c89b69c2b068fc378daa952ba7f163c4a11628f55a4df523b3ef92918290030190a3505050565b60008282111561099b5760408051600160e51b62461bcd02815260206004820152601e60248201527f536166654d6174683a207375627472616374696f6e206f766572666c6f770000604482015290519081900360640190fd5b50900390565b6000828201838110156109fe5760408051600160e51b62461bcd02815260206004820152601b60248201527f536166654d6174683a206164646974696f6e206f766572666c6f770000000000604482015290519081900360640190fd5b9392505050565b6001600160a01b038216610a635760408051600160e51b62461bcd02815260206004820152601f60248201527f45524332303a206d696e7420746f20746865207a65726f206164647265737300604482015290519081900360640190fd5b600554610a76908263ffffffff6109a116565b6005556001600160a01b038216600090815260036020526040902054610aa2908263ffffffff6109a116565b6001600160a01b03831660008181526003602090815260408083209490945583518581529351929391927fddf252ad1be2c89b69c2b068fc378daa952ba7f163c4a11628f55a4df523b3ef9281900390910190a35050565b6001600160a01b038216610b4257604051600160e51b62461bcd028152600401808060200182810382526021815260200180610ebe6021913960400191505060405180910390fd5b600554610b55908263ffffffff61094116565b6005556001600160a01b038216600090815260036020526040902054610b81908263ffffffff61094116565b6001600160a01b0383166000818152600360209081526040808320949094558351858152935191937fddf252ad1be2c89b69c2b068fc378daa952ba7f163c4a11628f55a4df523b3ef929081900390910190a35050565b610be28282610afa565b6001600160a01b0382166000908152600460209081526040808320338085529252909120546105b99184916104e0908563ffffffff61094116565b610c2e60068263ffffffff610d1716565b6040516001600160a01b038216907f6ae172837ea30b801fbfcdd4108aa1d5bf8ff775444fd70256b44e6bf3dfc3f690600090a250565b610c7660068263ffffffff610d9b16565b6040516001600160a01b038216907fe94479a9f7e1952cc78f2d6baab678adc1b772d936c6583def489e524cb6669290600090a250565b60006001600160a01b038216610cf757604051600160e51b62461bcd028152600401808060200182810382526022815260200180610e9c6022913960400191505060405180910390fd5b506001600160a01b03166000908152602091909152604090205460ff1690565b610d218282610cad565b15610d765760408051600160e51b62461bcd02815260206004820152601f60248201527f526f6c65733a206163636f756e7420616c72656164792068617320726f6c6500604482015290519081900360640190fd5b6001600160a01b0316600090815260209190915260409020805460ff19166001179055565b610da58282610cad565b610de357604051600160e51b62461bcd028152600401808060200182810382526021815260200180610e7b6021913960400191505060405180910390fd5b6001600160a01b0316600090815260209190915260409020805460ff1916905556fe45524332303a207472616e7366657220746f20746865207a65726f206164647265737345524332303a20617070726f766520746f20746865207a65726f20616464726573734d696e746572526f6c653a2063616c6c657220646f6573206e6f74206861766520746865204d696e74657220726f6c65526f6c65733a206163636f756e7420646f6573206e6f74206861766520726f6c65526f6c65733a206163636f756e7420697320746865207a65726f206164647265737345524332303a206275726e2066726f6d20746865207a65726f206164647265737345524332303a207472616e736665722066726f6d20746865207a65726f206164647265737345524332303a20617070726f76652066726f6d20746865207a65726f2061646472657373a165627a7a72305820c79012b4e0b3ecc97de247be3d6aea56d50b7f0b8528eed7fc0b5dad053190be0029526f6c65733a206163636f756e7420697320746865207a65726f2061646472657373526f6c65733a206163636f756e7420646f6573206e6f74206861766520726f6c65526f6c65733a206163636f756e7420697320746865207a65726f206164647265737357686974656c69737441646d696e526f6c653a2063616c6c657220646f6573206e6f742068617665207468652057686974656c69737441646d696e20726f6c6557686974656c6973746564526f6c653a2063616c6c657220646f6573206e6f742068617665207468652057686974656c697374656420726f6c65a165627a7a72305820e64e02bd8f23d6fba152b117a4a6c7d1f1f42acd4e0bcc191d61336b22d9fc160029526f6c65733a206163636f756e7420697320746865207a65726f2061646472657373",
  "source": "pragma solidity ^0.5.0;\n\nimport './interfaces/ILiability.sol';\nimport './interfaces/IEmitent.sol';\nimport '../node_modules/openzeppelin-solidity/contracts/access/roles/WhitelistedRole.sol';\nimport './EnergyToken.sol';\n\ncontract Emitter is WhitelistedRole, IEmitter {\n    /**\n     * @dev Green certificate\n     */\n    struct Certificate {\n        address token;\n        uint256 value;\n    }\n\n    event NewToken(address addr, uint256 value);\n\n    /**\n     * @dev Green certificate mapping by liability address\n     */\n    mapping(address => Certificate) public certificates;\n\n    function issueCertificate(address liability, uint256 value) external onlyWhitelisted {\n        require(certificates[liability].value == 0);\n\n        EnergyToken et = new EnergyToken();\n\n        emit NewToken(address(et), value);\n        certificates[liability].token = address(et);\n        certificates[liability].value = value;\n    }\n\n    function claimCertificate(address liability) external {\n        require(certificates[liability].value > 0);\n        require(ILiability(liability).isFinalized());\n\n        EnergyToken _token = EnergyToken(certificates[liability].token);\n        _token.mint(msg.sender, certificates[liability].value);\n\n        // Free storage space, for a gas refund reasons\n        delete certificates[liability];\n    }\n}\n\n",
  "sourcePath": "/home/vadim/Projects/issuing-service-package/contracts/contracts/Emitter.sol",
  "compiler": {
    "name": "solc",
    "version": "0.5.7+commit.6da8b019.Emscripten.clang"
  },
  "schemaVersion": "3.0.11",
  "updatedAt": "2019-09-17T14:41:20.819Z",
  "devdoc": {
    "methods": {}
  },
  "userdoc": {
    "methods": {}
  }
}