{
  "contractName": "ILiability",
  "abi": [
    {
      "constant": true,
      "inputs": [],
      "name": "lighthouseFee",
      "outputs": [
        {
          "name": "",
          "type": "uint256"
        }
      ],
      "payable": false,
      "stateMutability": "view",
      "type": "function"
    },
    {
      "constant": true,
      "inputs": [],
      "name": "model",
      "outputs": [
        {
          "name": "",
          "type": "bytes"
        }
      ],
      "payable": false,
      "stateMutability": "view",
      "type": "function"
    },
    {
      "constant": true,
      "inputs": [],
      "name": "isSuccess",
      "outputs": [
        {
          "name": "",
          "type": "bool"
        }
      ],
      "payable": false,
      "stateMutability": "view",
      "type": "function"
    },
    {
      "constant": true,
      "inputs": [],
      "name": "cost",
      "outputs": [
        {
          "name": "",
          "type": "uint256"
        }
      ],
      "payable": false,
      "stateMutability": "view",
      "type": "function"
    },
    {
      "constant": true,
      "inputs": [],
      "name": "objective",
      "outputs": [
        {
          "name": "",
          "type": "bytes"
        }
      ],
      "payable": false,
      "stateMutability": "view",
      "type": "function"
    },
    {
      "constant": true,
      "inputs": [],
      "name": "validator",
      "outputs": [
        {
          "name": "",
          "type": "address"
        }
      ],
      "payable": false,
      "stateMutability": "view",
      "type": "function"
    },
    {
      "constant": true,
      "inputs": [],
      "name": "validatorFee",
      "outputs": [
        {
          "name": "",
          "type": "uint256"
        }
      ],
      "payable": false,
      "stateMutability": "view",
      "type": "function"
    },
    {
      "constant": true,
      "inputs": [],
      "name": "promisee",
      "outputs": [
        {
          "name": "",
          "type": "address"
        }
      ],
      "payable": false,
      "stateMutability": "view",
      "type": "function"
    },
    {
      "constant": true,
      "inputs": [],
      "name": "lighthouse",
      "outputs": [
        {
          "name": "",
          "type": "address"
        }
      ],
      "payable": false,
      "stateMutability": "view",
      "type": "function"
    },
    {
      "constant": true,
      "inputs": [],
      "name": "result",
      "outputs": [
        {
          "name": "",
          "type": "bytes"
        }
      ],
      "payable": false,
      "stateMutability": "view",
      "type": "function"
    },
    {
      "constant": true,
      "inputs": [],
      "name": "offerHash",
      "outputs": [
        {
          "name": "",
          "type": "bytes32"
        }
      ],
      "payable": false,
      "stateMutability": "view",
      "type": "function"
    },
    {
      "constant": true,
      "inputs": [],
      "name": "isFinalized",
      "outputs": [
        {
          "name": "",
          "type": "bool"
        }
      ],
      "payable": false,
      "stateMutability": "view",
      "type": "function"
    },
    {
      "constant": true,
      "inputs": [],
      "name": "promisor",
      "outputs": [
        {
          "name": "",
          "type": "address"
        }
      ],
      "payable": false,
      "stateMutability": "view",
      "type": "function"
    },
    {
      "constant": true,
      "inputs": [],
      "name": "demandHash",
      "outputs": [
        {
          "name": "",
          "type": "bytes32"
        }
      ],
      "payable": false,
      "stateMutability": "view",
      "type": "function"
    },
    {
      "constant": true,
      "inputs": [],
      "name": "token",
      "outputs": [
        {
          "name": "",
          "type": "address"
        }
      ],
      "payable": false,
      "stateMutability": "view",
      "type": "function"
    },
    {
      "anonymous": false,
      "inputs": [
        {
          "indexed": true,
          "name": "success",
          "type": "bool"
        },
        {
          "indexed": false,
          "name": "result",
          "type": "bytes"
        }
      ],
      "name": "Finalized",
      "type": "event"
    }
  ],
  "bytecode": "0x608060405234801561001057600080fd5b506104ac806100206000396000f3fe608060405234801561001057600080fd5b5060043610610112576000357c010000000000000000000000000000000000000000000000000000000090048063474ce872116100b45780638d4e4083116100835780638d4e408314610233578063c2d8de541461023b578063f0476bc514610243578063fc0c546a1461024b57610112565b8063474ce872146102135780636301fd631461021b5780636537214714610223578063699373ca1461022b57610112565b806313faede6116100f057806313faede6146101ca57806314f1586a146101d25780633a5381b5146101da5780633f6d82561461020b57610112565b8063051064c6146101175780630ad9d052146101315780630b6c754b146101ae575b600080fd5b61011f610253565b60408051918252519081900360200190f35b610139610259565b6040805160208082528351818301528351919283929083019185019080838360005b8381101561017357818101518382015260200161015b565b50505050905090810190601f1680156101a05780820380516001836020036101000a031916815260200191505b509250505060405180910390f35b6101b66102e7565b604080519115158252519081900360200190f35b61011f610308565b61013961030e565b6101e2610368565b6040805173ffffffffffffffffffffffffffffffffffffffff9092168252519081900360200190f35b61011f610384565b6101e261038a565b6101e26103a6565b6101396103c2565b61011f61041a565b6101b6610420565b6101e2610442565b61011f61045e565b6101e2610464565b60055481565b6000805460408051602060026001851615610100026000190190941693909304601f810184900484028201840190925281815292918301828280156102df5780601f106102b4576101008083540402835291602001916102df565b820191906000526020600020905b8154815290600101906020018083116102c257829003601f168201915b505050505081565b600c5474010000000000000000000000000000000000000000900460ff1681565b60045481565b60018054604080516020600284861615610100026000190190941693909304601f810184900484028201840190925281815292918301828280156102df5780601f106102b4576101008083540402835291602001916102df565b600c5473ffffffffffffffffffffffffffffffffffffffff1681565b60065481565b600a5473ffffffffffffffffffffffffffffffffffffffff1681565b600b5473ffffffffffffffffffffffffffffffffffffffff1681565b6002805460408051602060018416156101000260001901909316849004601f810184900484028201840190925281815292918301828280156102df5780601f106102b4576101008083540402835291602001916102df565b60085481565b600c547501000000000000000000000000000000000000000000900460ff1681565b60095473ffffffffffffffffffffffffffffffffffffffff1681565b60075481565b60035473ffffffffffffffffffffffffffffffffffffffff168156fea165627a7a7230582019e7e3d2c98e59458e8664be2ad9c1e1f5c6b090972bcb65792226989cbf96e30029",
  "source": "pragma solidity ^0.5.0;\n\n/**\n * @title Standard liability smart contract interface\n */\ncontract ILiability {\n    /**\n     * @dev Liability termination signal\n     */\n    event Finalized(bool indexed success, bytes result);\n\n    /**\n     * @dev Behaviour model multihash\n     */\n    bytes public model;\n\n    /**\n     * @dev Objective ROSBAG multihash\n     * @notice ROSBAGv2 is used: http://wiki.ros.org/Bags/Format/2.0\n     */\n    bytes public objective;\n\n    /**\n     * @dev Report ROSBAG multihash\n     * @notice ROSBAGv2 is used: http://wiki.ros.org/Bags/Format/2.0\n     */\n    bytes public result;\n\n    /**\n     * @dev Payment token address\n     */\n    address public token;\n\n    /**\n     * @dev Liability cost\n     */\n    uint256 public cost;\n\n    /**\n     * @dev Lighthouse fee in wn\n     */\n    uint256 public lighthouseFee;\n\n    /**\n     * @dev Validator fee in wn\n     */\n    uint256 public validatorFee;\n\n    /**\n     * @dev Robonomics demand message hash\n     */\n    bytes32 public demandHash;\n\n    /**\n     * @dev Robonomics offer message hash\n     */\n    bytes32 public offerHash;\n\n    /**\n     * @dev Liability promisor address\n     */\n    address public promisor;\n\n    /**\n     * @dev Liability promisee address\n     */\n    address public promisee;\n\n    /**\n     * @dev Lighthouse assigned to this liability\n     */\n    address public lighthouse;\n\n    /**\n     * @dev Liability validator address\n     */\n    address public validator;\n\n    /**\n     * @dev Liability success flag\n     */\n    bool public isSuccess;\n\n    /**\n     * @dev Liability finalization status flag\n     */\n    bool public isFinalized;\n}\n\n",
  "sourcePath": "/home/vadim/Projects/issuing-service-package/contracts/contracts/interfaces/ILiability.sol",
  "compiler": {
    "name": "solc",
    "version": "0.5.7+commit.6da8b019.Emscripten.clang"
  },
  "schemaVersion": "3.0.11",
  "updatedAt": "2019-08-26T15:15:42.894Z",
  "devdoc": {
    "methods": {},
    "title": "Standard liability smart contract interface"
  },
  "userdoc": {
    "methods": {}
  }
}