{
  "contractName": "ILiability",
  "abi": [
    {
      "constant": true,
      "inputs": [],
      "name": "lighthouseFee",
      "outputs": [
        {
          "name": "",
          "type": "uint256"
        }
      ],
      "payable": false,
      "stateMutability": "view",
      "type": "function"
    },
    {
      "constant": true,
      "inputs": [],
      "name": "model",
      "outputs": [
        {
          "name": "",
          "type": "bytes"
        }
      ],
      "payable": false,
      "stateMutability": "view",
      "type": "function"
    },
    {
      "constant": true,
      "inputs": [],
      "name": "isSuccess",
      "outputs": [
        {
          "name": "",
          "type": "bool"
        }
      ],
      "payable": false,
      "stateMutability": "view",
      "type": "function"
    },
    {
      "constant": true,
      "inputs": [],
      "name": "cost",
      "outputs": [
        {
          "name": "",
          "type": "uint256"
        }
      ],
      "payable": false,
      "stateMutability": "view",
      "type": "function"
    },
    {
      "constant": true,
      "inputs": [],
      "name": "objective",
      "outputs": [
        {
          "name": "",
          "type": "bytes"
        }
      ],
      "payable": false,
      "stateMutability": "view",
      "type": "function"
    },
    {
      "constant": true,
      "inputs": [],
      "name": "validator",
      "outputs": [
        {
          "name": "",
          "type": "address"
        }
      ],
      "payable": false,
      "stateMutability": "view",
      "type": "function"
    },
    {
      "constant": true,
      "inputs": [],
      "name": "validatorFee",
      "outputs": [
        {
          "name": "",
          "type": "uint256"
        }
      ],
      "payable": false,
      "stateMutability": "view",
      "type": "function"
    },
    {
      "constant": true,
      "inputs": [],
      "name": "promisee",
      "outputs": [
        {
          "name": "",
          "type": "address"
        }
      ],
      "payable": false,
      "stateMutability": "view",
      "type": "function"
    },
    {
      "constant": true,
      "inputs": [],
      "name": "lighthouse",
      "outputs": [
        {
          "name": "",
          "type": "address"
        }
      ],
      "payable": false,
      "stateMutability": "view",
      "type": "function"
    },
    {
      "constant": true,
      "inputs": [],
      "name": "result",
      "outputs": [
        {
          "name": "",
          "type": "bytes"
        }
      ],
      "payable": false,
      "stateMutability": "view",
      "type": "function"
    },
    {
      "constant": true,
      "inputs": [],
      "name": "offerHash",
      "outputs": [
        {
          "name": "",
          "type": "bytes32"
        }
      ],
      "payable": false,
      "stateMutability": "view",
      "type": "function"
    },
    {
      "constant": true,
      "inputs": [],
      "name": "isFinalized",
      "outputs": [
        {
          "name": "",
          "type": "bool"
        }
      ],
      "payable": false,
      "stateMutability": "view",
      "type": "function"
    },
    {
      "constant": true,
      "inputs": [],
      "name": "promisor",
      "outputs": [
        {
          "name": "",
          "type": "address"
        }
      ],
      "payable": false,
      "stateMutability": "view",
      "type": "function"
    },
    {
      "constant": true,
      "inputs": [],
      "name": "demandHash",
      "outputs": [
        {
          "name": "",
          "type": "bytes32"
        }
      ],
      "payable": false,
      "stateMutability": "view",
      "type": "function"
    },
    {
      "constant": true,
      "inputs": [],
      "name": "token",
      "outputs": [
        {
          "name": "",
          "type": "address"
        }
      ],
      "payable": false,
      "stateMutability": "view",
      "type": "function"
    },
    {
      "anonymous": false,
      "inputs": [
        {
          "indexed": true,
          "name": "success",
          "type": "bool"
        },
        {
          "indexed": false,
          "name": "result",
          "type": "bytes"
        }
      ],
      "name": "Finalized",
      "type": "event"
    }
  ],
  "bytecode": "0x608060405234801561001057600080fd5b5061041e806100206000396000f3fe608060405234801561001057600080fd5b50600436106100f55760003560e01c8063474ce872116100975780638d4e4083116100665780638d4e408314610209578063c2d8de5414610211578063f0476bc514610219578063fc0c546a14610221576100f5565b8063474ce872146101e95780636301fd63146101f157806365372147146101f9578063699373ca14610201576100f5565b806313faede6116100d357806313faede6146101ad57806314f1586a146101b55780633a5381b5146101bd5780633f6d8256146101e1576100f5565b8063051064c6146100fa5780630ad9d052146101145780630b6c754b14610191575b600080fd5b610102610229565b60408051918252519081900360200190f35b61011c61022f565b6040805160208082528351818301528351919283929083019185019080838360005b8381101561015657818101518382015260200161013e565b50505050905090810190601f1680156101835780820380516001836020036101000a031916815260200191505b509250505060405180910390f35b6101996102bd565b604080519115158252519081900360200190f35b6101026102cd565b61011c6102d3565b6101c561032d565b604080516001600160a01b039092168252519081900360200190f35b61010261033c565b6101c5610342565b6101c5610351565b61011c610360565b6101026103b8565b6101996103be565b6101c56103ce565b6101026103dd565b6101c56103e3565b60055481565b6000805460408051602060026001851615610100026000190190941693909304601f810184900484028201840190925281815292918301828280156102b55780601f1061028a576101008083540402835291602001916102b5565b820191906000526020600020905b81548152906001019060200180831161029857829003601f168201915b505050505081565b600c54600160a01b900460ff1681565b60045481565b60018054604080516020600284861615610100026000190190941693909304601f810184900484028201840190925281815292918301828280156102b55780601f1061028a576101008083540402835291602001916102b5565b600c546001600160a01b031681565b60065481565b600a546001600160a01b031681565b600b546001600160a01b031681565b6002805460408051602060018416156101000260001901909316849004601f810184900484028201840190925281815292918301828280156102b55780601f1061028a576101008083540402835291602001916102b5565b60085481565b600c54600160a81b900460ff1681565b6009546001600160a01b031681565b60075481565b6003546001600160a01b03168156fea165627a7a723058200aab170063331e1d34f82fe4618bef1a8cddf0a6f86236c5d198f16d86b088720029",
  "source": "pragma solidity ^0.5.0;\n\n/**\n * @title Standard liability smart contract interface\n */\ncontract ILiability {\n    /**\n     * @dev Liability termination signal\n     */\n    event Finalized(bool indexed success, bytes result);\n\n    /**\n     * @dev Behaviour model multihash\n     */\n    bytes public model;\n\n    /**\n     * @dev Objective ROSBAG multihash\n     * @notice ROSBAGv2 is used: http://wiki.ros.org/Bags/Format/2.0\n     */\n    bytes public objective;\n\n    /**\n     * @dev Report ROSBAG multihash\n     * @notice ROSBAGv2 is used: http://wiki.ros.org/Bags/Format/2.0\n     */\n    bytes public result;\n\n    /**\n     * @dev Payment token address\n     */\n    address public token;\n\n    /**\n     * @dev Liability cost\n     */\n    uint256 public cost;\n\n    /**\n     * @dev Lighthouse fee in wn\n     */\n    uint256 public lighthouseFee;\n\n    /**\n     * @dev Validator fee in wn\n     */\n    uint256 public validatorFee;\n\n    /**\n     * @dev Robonomics demand message hash\n     */\n    bytes32 public demandHash;\n\n    /**\n     * @dev Robonomics offer message hash\n     */\n    bytes32 public offerHash;\n\n    /**\n     * @dev Liability promisor address\n     */\n    address public promisor;\n\n    /**\n     * @dev Liability promisee address\n     */\n    address public promisee;\n\n    /**\n     * @dev Lighthouse assigned to this liability\n     */\n    address public lighthouse;\n\n    /**\n     * @dev Liability validator address\n     */\n    address public validator;\n\n    /**\n     * @dev Liability success flag\n     */\n    bool public isSuccess;\n\n    /**\n     * @dev Liability finalization status flag\n     */\n    bool public isFinalized;\n}\n\n",
  "sourcePath": "/home/vadim/Projects/issuing-service-package/contracts/contracts/interfaces/ILiability.sol",
  "compiler": {
    "name": "solc",
    "version": "0.5.7+commit.6da8b019.Emscripten.clang"
  },
  "schemaVersion": "3.0.11",
  "updatedAt": "2019-09-17T14:33:54.037Z",
  "devdoc": {
    "methods": {},
    "title": "Standard liability smart contract interface"
  },
  "userdoc": {
    "methods": {}
  }
}