{
  "contractName": "WhitelistedRole",
  "abi": [
    {
      "constant": false,
      "inputs": [],
      "name": "renounceWhitelistAdmin",
      "outputs": [],
      "payable": false,
      "stateMutability": "nonpayable",
      "type": "function"
    },
    {
      "constant": false,
      "inputs": [
        {
          "name": "account",
          "type": "address"
        }
      ],
      "name": "addWhitelistAdmin",
      "outputs": [],
      "payable": false,
      "stateMutability": "nonpayable",
      "type": "function"
    },
    {
      "constant": true,
      "inputs": [
        {
          "name": "account",
          "type": "address"
        }
      ],
      "name": "isWhitelistAdmin",
      "outputs": [
        {
          "name": "",
          "type": "bool"
        }
      ],
      "payable": false,
      "stateMutability": "view",
      "type": "function"
    },
    {
      "anonymous": false,
      "inputs": [
        {
          "indexed": true,
          "name": "account",
          "type": "address"
        }
      ],
      "name": "WhitelistedAdded",
      "type": "event"
    },
    {
      "anonymous": false,
      "inputs": [
        {
          "indexed": true,
          "name": "account",
          "type": "address"
        }
      ],
      "name": "WhitelistedRemoved",
      "type": "event"
    },
    {
      "anonymous": false,
      "inputs": [
        {
          "indexed": true,
          "name": "account",
          "type": "address"
        }
      ],
      "name": "WhitelistAdminAdded",
      "type": "event"
    },
    {
      "anonymous": false,
      "inputs": [
        {
          "indexed": true,
          "name": "account",
          "type": "address"
        }
      ],
      "name": "WhitelistAdminRemoved",
      "type": "event"
    },
    {
      "constant": true,
      "inputs": [
        {
          "name": "account",
          "type": "address"
        }
      ],
      "name": "isWhitelisted",
      "outputs": [
        {
          "name": "",
          "type": "bool"
        }
      ],
      "payable": false,
      "stateMutability": "view",
      "type": "function"
    },
    {
      "constant": false,
      "inputs": [
        {
          "name": "account",
          "type": "address"
        }
      ],
      "name": "addWhitelisted",
      "outputs": [],
      "payable": false,
      "stateMutability": "nonpayable",
      "type": "function"
    },
    {
      "constant": false,
      "inputs": [
        {
          "name": "account",
          "type": "address"
        }
      ],
      "name": "removeWhitelisted",
      "outputs": [],
      "payable": false,
      "stateMutability": "nonpayable",
      "type": "function"
    },
    {
      "constant": false,
      "inputs": [],
      "name": "renounceWhitelisted",
      "outputs": [],
      "payable": false,
      "stateMutability": "nonpayable",
      "type": "function"
    }
  ],
  "bytecode": "0x60806040526100163364010000000061001b810204565b61018f565b61003360008264010000000061043f61006a82021704565b604051600160a060020a038216907f22380c05984257a1cb900161c713dd71d39e74820f1aea43bd3f1bdd2096129990600090a250565b61007d828264010000000061010e810204565b156100e957604080517f08c379a000000000000000000000000000000000000000000000000000000000815260206004820152601f60248201527f526f6c65733a206163636f756e7420616c72656164792068617320726f6c6500604482015290519081900360640190fd5b600160a060020a0316600090815260209190915260409020805460ff19166001179055565b6000600160a060020a03821661016f576040517f08c379a000000000000000000000000000000000000000000000000000000000815260040180806020018281038252602281526020018061077a6022913960400191505060405180910390fd5b50600160a060020a03166000908152602091909152604090205460ff1690565b6105dc8061019e6000396000f3fe608060405234801561001057600080fd5b506004361061009a576000357c0100000000000000000000000000000000000000000000000000000000900480634c5a628c116100785780634c5a628c146101275780637362d9c81461012f578063bb5f747b14610155578063d6cd94731461017b5761009a565b806310154bad1461009f578063291d9549146100c75780633af32abf146100ed575b600080fd5b6100c5600480360360208110156100b557600080fd5b5035600160a060020a0316610183565b005b6100c5600480360360208110156100dd57600080fd5b5035600160a060020a03166101d6565b6101136004803603602081101561010357600080fd5b5035600160a060020a0316610226565b604080519115158252519081900360200190f35b6100c561023f565b6100c56004803603602081101561014557600080fd5b5035600160a060020a031661024a565b6101136004803603602081101561016b57600080fd5b5035600160a060020a031661029a565b6100c56102ac565b61018c3361029a565b6101ca5760405160e560020a62461bcd0281526004018080602001828103825260408152602001806105716040913960400191505060405180910390fd5b6101d3816102b5565b50565b6101df3361029a565b61021d5760405160e560020a62461bcd0281526004018080602001828103825260408152602001806105716040913960400191505060405180910390fd5b6101d3816102fd565b600061023960018363ffffffff61034516565b92915050565b610248336103af565b565b6102533361029a565b6102915760405160e560020a62461bcd0281526004018080602001828103825260408152602001806105716040913960400191505060405180910390fd5b6101d3816103f7565b6000610239818363ffffffff61034516565b610248336102fd565b6102c660018263ffffffff61043f16565b604051600160a060020a038216907fee1504a83b6d4a361f4c1dc78ab59bfa30d6a3b6612c403e86bb01ef2984295f90600090a250565b61030e60018263ffffffff6104c316565b604051600160a060020a038216907f270d9b30cf5b0793bbfd54c9d5b94aeb49462b8148399000265144a8722da6b690600090a250565b6000600160a060020a03821661038f5760405160e560020a62461bcd02815260040180806020018281038252602281526020018061054f6022913960400191505060405180910390fd5b50600160a060020a03166000908152602091909152604090205460ff1690565b6103c060008263ffffffff6104c316565b604051600160a060020a038216907f0a8eb35e5ca14b3d6f28e4abf2f128dbab231a58b56e89beb5d636115001e16590600090a250565b61040860008263ffffffff61043f16565b604051600160a060020a038216907f22380c05984257a1cb900161c713dd71d39e74820f1aea43bd3f1bdd2096129990600090a250565b6104498282610345565b1561049e576040805160e560020a62461bcd02815260206004820152601f60248201527f526f6c65733a206163636f756e7420616c72656164792068617320726f6c6500604482015290519081900360640190fd5b600160a060020a0316600090815260209190915260409020805460ff19166001179055565b6104cd8282610345565b61050b5760405160e560020a62461bcd02815260040180806020018281038252602181526020018061052e6021913960400191505060405180910390fd5b600160a060020a0316600090815260209190915260409020805460ff1916905556fe526f6c65733a206163636f756e7420646f6573206e6f74206861766520726f6c65526f6c65733a206163636f756e7420697320746865207a65726f206164647265737357686974656c69737441646d696e526f6c653a2063616c6c657220646f6573206e6f742068617665207468652057686974656c69737441646d696e20726f6c65a165627a7a7230582084d49a15c9dcf37284188c91872d8eb3ddf9bff8f12f830d0b442206e4a9eae60029526f6c65733a206163636f756e7420697320746865207a65726f2061646472657373",
  "source": "pragma solidity ^0.5.0;\n\nimport \"../Roles.sol\";\nimport \"./WhitelistAdminRole.sol\";\n\n/**\n * @title WhitelistedRole\n * @dev Whitelisted accounts have been approved by a WhitelistAdmin to perform certain actions (e.g. participate in a\n * crowdsale). This role is special in that the only accounts that can add it are WhitelistAdmins (who can also remove\n * it), and not Whitelisteds themselves.\n */\ncontract WhitelistedRole is WhitelistAdminRole {\n    using Roles for Roles.Role;\n\n    event WhitelistedAdded(address indexed account);\n    event WhitelistedRemoved(address indexed account);\n\n    Roles.Role private _whitelisteds;\n\n    modifier onlyWhitelisted() {\n        require(isWhitelisted(msg.sender), \"WhitelistedRole: caller does not have the Whitelisted role\");\n        _;\n    }\n\n    function isWhitelisted(address account) public view returns (bool) {\n        return _whitelisteds.has(account);\n    }\n\n    function addWhitelisted(address account) public onlyWhitelistAdmin {\n        _addWhitelisted(account);\n    }\n\n    function removeWhitelisted(address account) public onlyWhitelistAdmin {\n        _removeWhitelisted(account);\n    }\n\n    function renounceWhitelisted() public {\n        _removeWhitelisted(msg.sender);\n    }\n\n    function _addWhitelisted(address account) internal {\n        _whitelisteds.add(account);\n        emit WhitelistedAdded(account);\n    }\n\n    function _removeWhitelisted(address account) internal {\n        _whitelisteds.remove(account);\n        emit WhitelistedRemoved(account);\n    }\n}\n",
  "sourcePath": "/home/vadim/Projects/issuing_agent/contracts/node_modules/openzeppelin-solidity/contracts/access/roles/WhitelistedRole.sol",
  "compiler": {
    "name": "solc",
    "version": "0.5.7+commit.6da8b019.Emscripten.clang"
  },
  "schemaVersion": "3.0.19",
  "updatedAt": "2019-12-14T14:21:12.972Z",
  "devdoc": {
    "details": "Whitelisted accounts have been approved by a WhitelistAdmin to perform certain actions (e.g. participate in a crowdsale). This role is special in that the only accounts that can add it are WhitelistAdmins (who can also remove it), and not Whitelisteds themselves.",
    "methods": {},
    "title": "WhitelistedRole"
  },
  "userdoc": {
    "methods": {}
  }
}